{
  "contractName": "CallMeChallenge",
  "abi": [
    {
      "constant": true,
      "inputs": [],
      "name": "isComplete",
      "outputs": [
        {
          "name": "",
          "type": "bool"
        }
      ],
      "payable": false,
      "stateMutability": "view",
      "type": "function"
    },
    {
      "constant": false,
      "inputs": [],
      "name": "callme",
      "outputs": [],
      "payable": false,
      "stateMutability": "nonpayable",
      "type": "function"
    }
  ],
  "bytecode": "0x606060405260008060006101000a81548160ff021916908315150217905550341561002957600080fd5b60e4806100376000396000f3006060604052600436106049576000357c0100000000000000000000000000000000000000000000000000000000900463ffffffff168063a3c8e39314604e578063b2fa1c9e146060575b600080fd5b3415605857600080fd5b605e608a565b005b3415606a57600080fd5b607060a6565b604051808215151515815260200191505060405180910390f35b60016000806101000a81548160ff021916908315150217905550565b6000809054906101000a900460ff16815600a165627a7a72305820737646415956449d465b7a6a265860eb87d40d247205486eee4a89d25a0739120029",
  "source": "pragma solidity 0.4.21;\r\n\r\ncontract CallMeChallenge {\r\n    bool public isComplete = false;\r\n\r\n    function callme() public {\r\n        isComplete = true;\r\n    }\r\n}",
  "sourcePath": "C:\\defi\\capturetheether\\contracts\\CallMeChallenge.sol",
  "compiler": {
    "name": "solc",
    "version": "0.4.21+commit.dfe3193c.Emscripten.clang"
  },
  "schemaVersion": "3.4.3",
  "updatedAt": "2021-11-07T14:18:07.199Z",
  "networkType": "ethereum",
  "devdoc": {
    "methods": {}
  },
  "userdoc": {
    "methods": {}
  }
}