{
  "contractName": "CaptureTheEther",
  "abi": [
    {
      "constant": true,
      "inputs": [
        {
          "name": "",
          "type": "address"
        }
      ],
      "name": "nicknameOf",
      "outputs": [
        {
          "name": "",
          "type": "bytes32"
        }
      ],
      "payable": false,
      "stateMutability": "view",
      "type": "function"
    },
    {
      "constant": false,
      "inputs": [
        {
          "name": "nickname",
          "type": "bytes32"
        }
      ],
      "name": "setNickname",
      "outputs": [],
      "payable": false,
      "stateMutability": "nonpayable",
      "type": "function"
    }
  ],
  "bytecode": "0x6060604052341561000f57600080fd5b61015b8061001e6000396000f30060606040526004361061004c576000357c0100000000000000000000000000000000000000000000000000000000900463ffffffff1680631ae8ab81146100515780636790081c14610078575b600080fd5b341561005c57600080fd5b6100766004808035600019169060200190919050506100cd565b005b341561008357600080fd5b6100af600480803573ffffffffffffffffffffffffffffffffffffffff16906020019091905050610117565b60405180826000191660001916815260200191505060405180910390f35b806000803373ffffffffffffffffffffffffffffffffffffffff1673ffffffffffffffffffffffffffffffffffffffff168152602001908152602001600020816000191690555050565b600060205280600052604060002060009150905054815600a165627a7a72305820750af8c8c00056666031070199fda403d2858d3197024aebe0a4201d83d8eeaf0029",
  "source": "pragma solidity 0.4.21;\r\n\r\ncontract CaptureTheEther {\r\n    mapping (address => bytes32) public nicknameOf;\r\n\r\n    function setNickname(bytes32 nickname) public {\r\n        nicknameOf[msg.sender] = nickname;\r\n    }\r\n}\r\n\r\n// Challenge contract. You don't need to do anything with this; it just verifies\r\n// that you set a nickname for yourself.\r\ncontract NicknameChallenge {\r\n    CaptureTheEther cte = CaptureTheEther(msg.sender);\r\n    address player;\r\n\r\n    // Your address gets passed in as a constructor parameter.\r\n    function NicknameChallenge(address _player) public {\r\n        player = _player;\r\n    }\r\n\r\n    // Check that the first character is not null.\r\n    function isComplete() public view returns (bool) {\r\n        return cte.nicknameOf(player)[0] != 0;\r\n    }\r\n}",
  "sourcePath": "C:\\defi\\capturetheether\\contracts\\NicknameChallenge.sol",
  "compiler": {
    "name": "solc",
    "version": "0.4.21+commit.dfe3193c.Emscripten.clang"
  },
  "schemaVersion": "3.4.3",
  "updatedAt": "2021-11-13T00:42:58.100Z",
  "networkType": "ethereum",
  "devdoc": {
    "methods": {}
  },
  "userdoc": {
    "methods": {}
  }
}