{
  "contractName": "FuzzyIdentityHelper",
  "abi": [
    {
      "constant": false,
      "inputs": [],
      "name": "authenticate",
      "outputs": [],
      "payable": false,
      "stateMutability": "nonpayable",
      "type": "function"
    },
    {
      "constant": true,
      "inputs": [],
      "name": "isComplete",
      "outputs": [
        {
          "name": "",
          "type": "bool"
        }
      ],
      "payable": false,
      "stateMutability": "view",
      "type": "function"
    },
    {
      "constant": true,
      "inputs": [],
      "name": "name",
      "outputs": [
        {
          "name": "",
          "type": "bytes32"
        }
      ],
      "payable": false,
      "stateMutability": "view",
      "type": "function"
    }
  ],
  "bytecode": "0x6060604052341561000f57600080fd5b6102f28061001e6000396000f300606060405260043610610057576000357c0100000000000000000000000000000000000000000000000000000000900463ffffffff16806306fdde031461005c578063380c7a671461008d578063b2fa1c9e146100a2575b600080fd5b341561006757600080fd5b61006f6100cf565b60405180826000191660001916815260200191505060405180910390f35b341561009857600080fd5b6100a06100f7565b005b34156100ad57600080fd5b6100b561013b565b604051808215151515815260200191505060405180910390f35b60007f736d617278000000000000000000000000000000000000000000000000000000905090565b6101003361014d565b151561010b57600080fd5b610114336101fa565b151561011f57600080fd5b60016000806101000a81548160ff021916908315150217905550565b6000809054906101000a900460ff1681565b60007f736d617278000000000000000000000000000000000000000000000000000000600019168273ffffffffffffffffffffffffffffffffffffffff166306fdde036040518163ffffffff167c0100000000000000000000000000000000000000000000000000000000028152600401602060405180830381600087803b15156101d757600080fd5b5af115156101e457600080fd5b5050506040518051905060001916149050919050565b6000806000806000856c010000000000000000000000000293506f0badc0de00000000000000000000000092506f0fffffff0000000000000000000000009150600090505b60228110156102b857826bffffffffffffffffffffffff19168285166bffffffffffffffffffffffff1916141561027957600194506102bd565b6004826bffffffffffffffffffffffff19169060020a0291506004836bffffffffffffffffffffffff19169060020a029250808060010191505061023f565b600094505b505050509190505600a165627a7a72305820e1a0f5fef290f3a391fe8f89437d49f073d0e32fcb79e88c48d8edeae4b181700029",
  "source": "pragma solidity ^0.4.21;\r\n\r\ninterface IName {\r\n    function name() external view returns (bytes32);\r\n}\r\n\r\ncontract FuzzyIdentityChallenge {\r\n    bool public isComplete;\r\n\r\n    function authenticate() public {\r\n        require(isSmarx(msg.sender));\r\n        require(isBadCode(msg.sender));\r\n\r\n        isComplete = true;\r\n    }\r\n\r\n    function isSmarx(address addr) internal view returns (bool) {\r\n        return IName(addr).name() == bytes32(\"smarx\");\r\n    }\r\n\r\n    function isBadCode(address _addr) internal pure returns (bool) {\r\n        bytes20 addr = bytes20(_addr);\r\n        bytes20 id = hex\"000000000000000000000000000000000badc0de\";\r\n        bytes20 mask = hex\"000000000000000000000000000000000fffffff\";\r\n\r\n        for (uint256 i = 0; i < 34; i++) {\r\n            if (addr & mask == id) {\r\n                return true;\r\n            }\r\n            mask <<= 4;\r\n            id <<= 4;\r\n        }\r\n\r\n        return false;\r\n    }\r\n}\r\n\r\ncontract FuzzyIdentityHelper is FuzzyIdentityChallenge, IName {\r\n    function name() external view returns (bytes32) {\r\n        return bytes32(\"smarx\");\r\n    }\r\n}\r\n",
  "sourcePath": "C:\\defi\\capturetheether\\contracts\\FuzzyIdentityChallenge.sol",
  "compiler": {
    "name": "solc",
    "version": "0.4.21+commit.dfe3193c.Emscripten.clang"
  },
  "schemaVersion": "3.4.3",
  "updatedAt": "2021-11-13T20:59:35.126Z",
  "devdoc": {
    "methods": {}
  },
  "userdoc": {
    "methods": {}
  }
}