{
  "contractName": "GuessTheNumberChallenge",
  "abi": [
    {
      "inputs": [],
      "payable": true,
      "stateMutability": "payable",
      "type": "constructor"
    },
    {
      "constant": true,
      "inputs": [],
      "name": "isComplete",
      "outputs": [
        {
          "name": "",
          "type": "bool"
        }
      ],
      "payable": false,
      "stateMutability": "view",
      "type": "function"
    },
    {
      "constant": false,
      "inputs": [
        {
          "name": "n",
          "type": "uint8"
        }
      ],
      "name": "guess",
      "outputs": [],
      "payable": true,
      "stateMutability": "payable",
      "type": "function"
    }
  ],
  "bytecode": "0x6060604052602a6000806101000a81548160ff021916908360ff160217905550670de0b6b3a76400003414151561003557600080fd5b610164806100446000396000f30060606040526004361061004c576000357c0100000000000000000000000000000000000000000000000000000000900463ffffffff1680634ba4c16b14610051578063b2fa1c9e1461006c575b600080fd5b61006a600480803560ff16906020019091905050610099565b005b341561007757600080fd5b61007f610117565b604051808215151515815260200191505060405180910390f35b670de0b6b3a7640000341415156100af57600080fd5b6000809054906101000a900460ff1660ff168160ff161415610114573373ffffffffffffffffffffffffffffffffffffffff166108fc671bc16d674ec800009081150290604051600060405180830381858888f19350505050151561011357600080fd5b5b50565b6000803073ffffffffffffffffffffffffffffffffffffffff1631149050905600a165627a7a72305820465cb10411d783382729290240a3a9953c2c7ff11d159df2587bc47c41c022cc0029",
  "source": "pragma solidity 0.4.21;\r\n\r\ncontract GuessTheNumberChallenge {\r\n    uint8 answer = 42;\r\n\r\n    function GuessTheNumberChallenge() public payable {\r\n        require(msg.value == 1 ether);\r\n    }\r\n\r\n    function isComplete() public view returns (bool) {\r\n        return address(this).balance == 0;\r\n    }\r\n\r\n    function guess(uint8 n) public payable {\r\n        require(msg.value == 1 ether);\r\n\r\n        if (n == answer) {\r\n            msg.sender.transfer(2 ether);\r\n        }\r\n    }\r\n}",
  "sourcePath": "C:\\defi\\capturetheether\\contracts\\GuessTheNumberChallenge.sol",
  "compiler": {
    "name": "solc",
    "version": "0.4.21+commit.dfe3193c.Emscripten.clang"
  },
  "schemaVersion": "3.4.3",
  "updatedAt": "2021-11-07T14:18:07.809Z",
  "networkType": "ethereum",
  "devdoc": {
    "methods": {}
  },
  "userdoc": {
    "methods": {}
  }
}