{
  "contractName": "MappingChallenge",
  "abi": [
    {
      "constant": true,
      "inputs": [],
      "name": "isComplete",
      "outputs": [
        {
          "name": "",
          "type": "bool"
        }
      ],
      "payable": false,
      "stateMutability": "view",
      "type": "function"
    },
    {
      "constant": false,
      "inputs": [
        {
          "name": "key",
          "type": "uint256"
        },
        {
          "name": "value",
          "type": "uint256"
        }
      ],
      "name": "set",
      "outputs": [],
      "payable": false,
      "stateMutability": "nonpayable",
      "type": "function"
    },
    {
      "constant": true,
      "inputs": [
        {
          "name": "key",
          "type": "uint256"
        }
      ],
      "name": "get",
      "outputs": [
        {
          "name": "",
          "type": "uint256"
        }
      ],
      "payable": false,
      "stateMutability": "view",
      "type": "function"
    }
  ],
  "bytecode": "0x6060604052341561000f57600080fd5b6101e38061001e6000396000f300606060405260043610610057576000357c0100000000000000000000000000000000000000000000000000000000900463ffffffff1680631ab06ee51461005c5780639507d39a14610088578063b2fa1c9e146100bf575b600080fd5b341561006757600080fd5b61008660048080359060200190919080359060200190919050506100ec565b005b341561009357600080fd5b6100a96004808035906020019091905050610130565b6040518082815260200191505060405180910390f35b34156100ca57600080fd5b6100d2610154565b604051808215151515815260200191505060405180910390f35b8160018054905011151561010d576001820160018161010b9190610166565b505b8060018381548110151561011d57fe5b9060005260206000209001819055505050565b600060018281548110151561014157fe5b9060005260206000209001549050919050565b6000809054906101000a900460ff1681565b81548183558181151161018d5781836000526020600020918201910161018c9190610192565b5b505050565b6101b491905b808211156101b0576000816000905550600101610198565b5090565b905600a165627a7a72305820e35268f9fe22b88c1eb8eb765800c2d0749eb0c641991c02baef2e12123951d20029",
  "source": "pragma solidity ^0.4.21;\r\n\r\ncontract MappingChallenge {\r\n    bool public isComplete;\r\n    uint256[] map;\r\n\r\n    function set(uint256 key, uint256 value) public {\r\n        // Expand dynamic array as needed\r\n        if (map.length <= key) {\r\n            map.length = key + 1;\r\n        }\r\n\r\n        map[key] = value;\r\n    }\r\n\r\n    function get(uint256 key) public view returns (uint256) {\r\n        return map[key];\r\n    }\r\n}",
  "sourcePath": "C:\\defi\\capturetheether\\contracts\\MappingChallenge.sol",
  "compiler": {
    "name": "solc",
    "version": "0.4.21+commit.dfe3193c.Emscripten.clang"
  },
  "schemaVersion": "3.4.3",
  "updatedAt": "2021-11-11T14:31:57.420Z",
  "devdoc": {
    "methods": {}
  },
  "userdoc": {
    "methods": {}
  }
}