{
  "contractName": "NicknameChallenge",
  "abi": [
    {
      "inputs": [
        {
          "name": "_player",
          "type": "address"
        }
      ],
      "payable": false,
      "stateMutability": "nonpayable",
      "type": "constructor"
    },
    {
      "constant": true,
      "inputs": [],
      "name": "isComplete",
      "outputs": [
        {
          "name": "",
          "type": "bool"
        }
      ],
      "payable": false,
      "stateMutability": "view",
      "type": "function"
    }
  ],
  "bytecode": "0x6060604052336000806101000a81548173ffffffffffffffffffffffffffffffffffffffff021916908373ffffffffffffffffffffffffffffffffffffffff160217905550341561004f57600080fd5b6040516020806102ce8339810160405280805190602001909190505080600160006101000a81548173ffffffffffffffffffffffffffffffffffffffff021916908373ffffffffffffffffffffffffffffffffffffffff16021790555050610212806100bc6000396000f300606060405260043610610041576000357c0100000000000000000000000000000000000000000000000000000000900463ffffffff168063b2fa1c9e14610046575b600080fd5b341561005157600080fd5b610059610073565b604051808215151515815260200191505060405180910390f35b6000807f0100000000000000000000000000000000000000000000000000000000000000026000809054906101000a900473ffffffffffffffffffffffffffffffffffffffff1673ffffffffffffffffffffffffffffffffffffffff16636790081c600160009054906101000a900473ffffffffffffffffffffffffffffffffffffffff166040518263ffffffff167c0100000000000000000000000000000000000000000000000000000000028152600401808273ffffffffffffffffffffffffffffffffffffffff1673ffffffffffffffffffffffffffffffffffffffff168152602001915050602060405180830381600087803b151561017557600080fd5b5af1151561018257600080fd5b50505060405180519050600060208110151561019a57fe5b1a7f0100000000000000000000000000000000000000000000000000000000000000027effffffffffffffffffffffffffffffffffffffffffffffffffffffffffffff191614159050905600a165627a7a723058204abfa15f1b5200fcc8c7106baf9ab84b53f05b0c7bee5611207d62903f6885690029",
  "source": "pragma solidity 0.4.21;\r\n\r\ncontract CaptureTheEther {\r\n    mapping (address => bytes32) public nicknameOf;\r\n\r\n    function setNickname(bytes32 nickname) public {\r\n        nicknameOf[msg.sender] = nickname;\r\n    }\r\n}\r\n\r\n// Challenge contract. You don't need to do anything with this; it just verifies\r\n// that you set a nickname for yourself.\r\ncontract NicknameChallenge {\r\n    CaptureTheEther cte = CaptureTheEther(msg.sender);\r\n    address player;\r\n\r\n    // Your address gets passed in as a constructor parameter.\r\n    function NicknameChallenge(address _player) public {\r\n        player = _player;\r\n    }\r\n\r\n    // Check that the first character is not null.\r\n    function isComplete() public view returns (bool) {\r\n        return cte.nicknameOf(player)[0] != 0;\r\n    }\r\n}",
  "sourcePath": "C:\\defi\\capturetheether\\contracts\\NicknameChallenge.sol",
  "compiler": {
    "name": "solc",
    "version": "0.4.21+commit.dfe3193c.Emscripten.clang"
  },
  "schemaVersion": "3.4.3",
  "updatedAt": "2021-11-11T14:32:03.036Z",
  "networkType": "ethereum",
  "devdoc": {
    "methods": {}
  },
  "userdoc": {
    "methods": {}
  }
}