{
  "contractName": "PredictHelper",
  "abi": [
    {
      "constant": true,
      "inputs": [],
      "name": "getOtherContract",
      "outputs": [
        {
          "name": "",
          "type": "address"
        }
      ],
      "payable": false,
      "stateMutability": "view",
      "type": "function"
    },
    {
      "constant": false,
      "inputs": [
        {
          "name": "newAddr",
          "type": "address"
        }
      ],
      "name": "setOtherContract",
      "outputs": [],
      "payable": false,
      "stateMutability": "nonpayable",
      "type": "function"
    },
    {
      "constant": true,
      "inputs": [],
      "name": "waste",
      "outputs": [
        {
          "name": "",
          "type": "uint8"
        }
      ],
      "payable": false,
      "stateMutability": "view",
      "type": "function"
    },
    {
      "constant": true,
      "inputs": [],
      "name": "otherContract",
      "outputs": [
        {
          "name": "",
          "type": "address"
        }
      ],
      "payable": false,
      "stateMutability": "view",
      "type": "function"
    },
    {
      "payable": true,
      "stateMutability": "payable",
      "type": "fallback"
    },
    {
      "anonymous": false,
      "inputs": [
        {
          "indexed": false,
          "name": "caller",
          "type": "address"
        },
        {
          "indexed": false,
          "name": "newAddress",
          "type": "address"
        }
      ],
      "name": "SetOtherContract",
      "type": "event"
    },
    {
      "constant": true,
      "inputs": [],
      "name": "getGuess",
      "outputs": [
        {
          "name": "",
          "type": "uint8"
        }
      ],
      "payable": false,
      "stateMutability": "view",
      "type": "function"
    },
    {
      "constant": true,
      "inputs": [],
      "name": "getSettlementBlockNumber",
      "outputs": [
        {
          "name": "",
          "type": "uint256"
        }
      ],
      "payable": false,
      "stateMutability": "view",
      "type": "function"
    },
    {
      "constant": true,
      "inputs": [],
      "name": "getAnswer",
      "outputs": [
        {
          "name": "",
          "type": "uint8"
        }
      ],
      "payable": false,
      "stateMutability": "view",
      "type": "function"
    },
    {
      "constant": false,
      "inputs": [],
      "name": "wasteBlock",
      "outputs": [],
      "payable": false,
      "stateMutability": "nonpayable",
      "type": "function"
    },
    {
      "constant": true,
      "inputs": [],
      "name": "isComplete",
      "outputs": [
        {
          "name": "",
          "type": "bool"
        }
      ],
      "payable": false,
      "stateMutability": "view",
      "type": "function"
    },
    {
      "constant": false,
      "inputs": [
        {
          "name": "n",
          "type": "uint8"
        }
      ],
      "name": "lockInGuess",
      "outputs": [],
      "payable": true,
      "stateMutability": "payable",
      "type": "function"
    },
    {
      "constant": false,
      "inputs": [],
      "name": "settle",
      "outputs": [],
      "payable": false,
      "stateMutability": "nonpayable",
      "type": "function"
    },
    {
      "constant": false,
      "inputs": [],
      "name": "withdraw",
      "outputs": [],
      "payable": false,
      "stateMutability": "nonpayable",
      "type": "function"
    }
  ],
  "bytecode": "0x606060405260008060006101000a81548173ffffffffffffffffffffffffffffffffffffffff021916908373ffffffffffffffffffffffffffffffffffffffff160217905550341561005057600080fd5b6108de8061005f6000396000f3006060604052600436106100ba576000357c0100000000000000000000000000000000000000000000000000000000900463ffffffff1680630b4b5198146100bc57806311da60b4146101115780631e73c045146101265780632c0e00541461013b57806335a28f3e146101565780633ccfd60b1461018f57806354846684146101a457806380d4e157146101d35780638d582ae4146101fc5780639c16667c1461022b578063b2fa1c9e1461025a578063e98d36e114610287575b005b34156100c757600080fd5b6100cf6102dc565b604051808273ffffffffffffffffffffffffffffffffffffffff1673ffffffffffffffffffffffffffffffffffffffff16815260200191505060405180910390f35b341561011c57600080fd5b610124610305565b005b341561013157600080fd5b6101396104a3565b005b610154600480803560ff169060200190919050506104d3565b005b341561016157600080fd5b61018d600480803573ffffffffffffffffffffffffffffffffffffffff169060200190919050506105f5565b005b341561019a57600080fd5b6101a26106cf565b005b34156101af57600080fd5b6101b7610728565b604051808260ff1660ff16815260200191505060405180910390f35b34156101de57600080fd5b6101e661073b565b6040518082815260200191505060405180910390f35b341561020757600080fd5b61020f610745565b604051808260ff1660ff16815260200191505060405180910390f35b341561023657600080fd5b61023e61075b565b604051808260ff1660ff16815260200191505060405180910390f35b341561026557600080fd5b61026d61079f565b604051808215151515815260200191505060405180910390f35b341561029257600080fd5b61029a61088d565b604051808273ffffffffffffffffffffffffffffffffffffffff1673ffffffffffffffffffffffffffffffffffffffff16815260200191505060405180910390f35b60008060009054906101000a900473ffffffffffffffffffffffffffffffffffffffff16905090565b60008060008060009054906101000a900473ffffffffffffffffffffffffffffffffffffffff1673ffffffffffffffffffffffffffffffffffffffff161415151561034f57600080fd5b61035761075b565b9150600060159054906101000a900460ff1660ff168260ff1614151561037c57600080fd5b6000809054906101000a900473ffffffffffffffffffffffffffffffffffffffff1690508073ffffffffffffffffffffffffffffffffffffffff166311da60b46040518163ffffffff167c0100000000000000000000000000000000000000000000000000000000028152600401600060405180830381600087803b151561040357600080fd5b5af1151561041057600080fd5b505050600115158173ffffffffffffffffffffffffffffffffffffffff1663b2fa1c9e6040518163ffffffff167c0100000000000000000000000000000000000000000000000000000000028152600401602060405180830381600087803b151561047a57600080fd5b5af1151561048757600080fd5b50505060405180519050151514151561049f57600080fd5b5050565b6001600060148282829054906101000a900460ff160192506101000a81548160ff021916908360ff160217905550565b6000806000809054906101000a900473ffffffffffffffffffffffffffffffffffffffff1673ffffffffffffffffffffffffffffffffffffffff161415151561051b57600080fd5b81600060156101000a81548160ff021916908360ff160217905550600143016001819055506000809054906101000a900473ffffffffffffffffffffffffffffffffffffffff1690508073ffffffffffffffffffffffffffffffffffffffff16632c0e0054670de0b6b3a7640000846040518363ffffffff167c0100000000000000000000000000000000000000000000000000000000028152600401808260ff1660ff1681526020019150506000604051808303818588803b15156105e057600080fd5b5af115156105ed57600080fd5b505050505050565b806000806101000a81548173ffffffffffffffffffffffffffffffffffffffff021916908373ffffffffffffffffffffffffffffffffffffffff1602179055507f081eb3239ea805b9a08e7c4f93baacc9d1965ecde599e5ed9b2b3936cd3fe0b83382604051808373ffffffffffffffffffffffffffffffffffffffff1673ffffffffffffffffffffffffffffffffffffffff1681526020018273ffffffffffffffffffffffffffffffffffffffff1673ffffffffffffffffffffffffffffffffffffffff1681526020019250505060405180910390a150565b3373ffffffffffffffffffffffffffffffffffffffff166108fc3073ffffffffffffffffffffffffffffffffffffffff16319081150290604051600060405180830381858888f19350505050151561072657600080fd5b565b600060149054906101000a900460ff1681565b6000600154905090565b60008060159054906101000a900460ff16905090565b6000600a6001430340426040518083600019166000191681526020018281526020019250505060405180910390206001900460ff1681151561079957fe5b06905090565b60008060008060009054906101000a900473ffffffffffffffffffffffffffffffffffffffff1673ffffffffffffffffffffffffffffffffffffffff16141515156107e957600080fd5b6000809054906101000a900473ffffffffffffffffffffffffffffffffffffffff1690508073ffffffffffffffffffffffffffffffffffffffff1663b2fa1c9e6040518163ffffffff167c0100000000000000000000000000000000000000000000000000000000028152600401602060405180830381600087803b151561087057600080fd5b5af1151561087d57600080fd5b5050506040518051905091505090565b6000809054906101000a900473ffffffffffffffffffffffffffffffffffffffff16815600a165627a7a723058206843ef9f60da66c1bb79100e427ba45c42de93e66bd505a298e305870df147700029",
  "source": "pragma solidity ^0.4.21;\r\n\r\nimport './OtherContract.sol';\r\n/*\r\nconst oneEth = web3.utils.toWei('1', 'ether');\r\nvar predictTheFutureChallenge = await PredictTheFutureChallenge.deployed();\r\nvar predictHelper = await PredictHelper.deployed();\r\n\r\nvar blockNumTarget = await web3.eth.getBlockNumber() + 2;\r\nvar answer = await predictHelper.getAnswer(blockNumTarget);\r\nawait predictHelper.lockInGuess(answer, {from: accounts[0], value: oneEth});\r\nvar blockNumCurrent = await web3.eth.getBlockNumber();\r\nwhile (blockNumCurrent < blockNumberTarget) {\r\n    await predictHelper.wasteBlock();\r\n}\r\nawait predictHelper.settle();\r\nawait predictHelper.isComplete();\r\n*/\r\n\r\ncontract PredictHelper is OtherContract {\r\n    uint8 public waste;\r\n    uint8 guess;\r\n    uint256 settlementBlockNumber;\r\n\r\n    function getGuess() public view returns (uint8) {\r\n        return guess;\r\n    }\r\n\r\n    function getSettlementBlockNumber() public view returns (uint256) {\r\n        return settlementBlockNumber;\r\n    }\r\n\r\n    function getAnswer() public view returns (uint8) {\r\n        return uint8(keccak256(block.blockhash(block.number - 1), now)) % 10;\r\n    }\r\n\r\n    function wasteBlock() public {\r\n        waste += 1;\r\n    }\r\n\r\n    function() public payable { \r\n    }\r\n\r\n    function isComplete() public view returns (bool) {\r\n        require(otherContract != 0);\r\n        PredictTheFutureChallenge predictTheFutureChallenge = PredictTheFutureChallenge(otherContract);\r\n        return predictTheFutureChallenge.isComplete();\r\n    }\r\n    \r\n    function lockInGuess(uint8 n) public payable {\r\n        require(otherContract != 0);\r\n        guess = n;\r\n        settlementBlockNumber = block.number + 1;\r\n        PredictTheFutureChallenge predictTheFutureChallenge = PredictTheFutureChallenge(otherContract);\r\n        predictTheFutureChallenge.lockInGuess.value(1 ether)(n);\r\n    }\r\n    \r\n    function settle() public {\r\n        require(otherContract != 0);\r\n        uint8 answer = getAnswer();\r\n        require(answer == guess);\r\n        PredictTheFutureChallenge predictTheFutureChallenge = PredictTheFutureChallenge(otherContract);\r\n        predictTheFutureChallenge.settle();\r\n        require(predictTheFutureChallenge.isComplete() == true);\r\n    }\r\n\r\n    function withdraw() public {\r\n        msg.sender.transfer(address(this).balance);\r\n    }\r\n}\r\n\r\ncontract PredictTheFutureChallenge {\r\n    address guesser;\r\n    uint8 guess;\r\n    uint256 settlementBlockNumber;\r\n\r\n    function PredictTheFutureChallenge() public payable {\r\n        require(msg.value == 1 ether);\r\n    }\r\n\r\n    function isComplete() public view returns (bool) {\r\n        return address(this).balance == 0;\r\n    }\r\n\r\n    function lockInGuess(uint8 n) public payable {\r\n        require(guesser == 0);\r\n        require(msg.value == 1 ether);\r\n\r\n        guesser = msg.sender;\r\n        guess = n;\r\n        settlementBlockNumber = block.number + 1;\r\n    }\r\n\r\n    function settle() public {\r\n        require(msg.sender == guesser);\r\n        require(block.number > settlementBlockNumber);\r\n\r\n        uint8 answer = uint8(keccak256(block.blockhash(block.number - 1), now)) % 10;\r\n\r\n        guesser = 0;\r\n        if (guess == answer) {\r\n            msg.sender.transfer(2 ether);\r\n        }\r\n    }\r\n}\r\n",
  "sourcePath": "C:\\defi\\capturetheether\\contracts\\PredictTheFutureChallenge.sol",
  "compiler": {
    "name": "solc",
    "version": "0.4.21+commit.dfe3193c.Emscripten.clang"
  },
  "schemaVersion": "3.4.3",
  "updatedAt": "2021-11-09T15:02:23.176Z",
  "networkType": "ethereum",
  "devdoc": {
    "methods": {}
  },
  "userdoc": {
    "methods": {}
  }
}