{
  "contractName": "RetirementFundChallenge",
  "abi": [
    {
      "inputs": [
        {
          "name": "player",
          "type": "address"
        }
      ],
      "payable": true,
      "stateMutability": "payable",
      "type": "constructor"
    },
    {
      "constant": true,
      "inputs": [],
      "name": "isComplete",
      "outputs": [
        {
          "name": "",
          "type": "bool"
        }
      ],
      "payable": false,
      "stateMutability": "view",
      "type": "function"
    },
    {
      "constant": false,
      "inputs": [],
      "name": "withdraw",
      "outputs": [],
      "payable": false,
      "stateMutability": "nonpayable",
      "type": "function"
    },
    {
      "constant": false,
      "inputs": [],
      "name": "collectPenalty",
      "outputs": [],
      "payable": false,
      "stateMutability": "nonpayable",
      "type": "function"
    }
  ],
  "bytecode": "0x606060405233600160006101000a81548173ffffffffffffffffffffffffffffffffffffffff021916908373ffffffffffffffffffffffffffffffffffffffff1602179055506312cc030042016003556040516020806103e983398101604052808051906020019091905050670de0b6b3a76400003414151561008157600080fd5b80600260006101000a81548173ffffffffffffffffffffffffffffffffffffffff021916908373ffffffffffffffffffffffffffffffffffffffff1602179055503460008190555050610310806100d96000396000f300606060405260043610610057576000357c0100000000000000000000000000000000000000000000000000000000900463ffffffff16806339f22f6b1461005c5780633ccfd60b14610071578063b2fa1c9e14610086575b600080fd5b341561006757600080fd5b61006f6100b3565b005b341561007c57600080fd5b610084610198565b005b341561009157600080fd5b6100996102c3565b604051808215151515815260200191505060405180910390f35b6000600260009054906101000a900473ffffffffffffffffffffffffffffffffffffffff1673ffffffffffffffffffffffffffffffffffffffff163373ffffffffffffffffffffffffffffffffffffffff1614151561011157600080fd5b3073ffffffffffffffffffffffffffffffffffffffff163160005403905060008111151561013e57600080fd5b3373ffffffffffffffffffffffffffffffffffffffff166108fc3073ffffffffffffffffffffffffffffffffffffffff16319081150290604051600060405180830381858888f19350505050151561019557600080fd5b50565b600160009054906101000a900473ffffffffffffffffffffffffffffffffffffffff1673ffffffffffffffffffffffffffffffffffffffff163373ffffffffffffffffffffffffffffffffffffffff161415156101f457600080fd5b600354421015610269573373ffffffffffffffffffffffffffffffffffffffff166108fc600a60093073ffffffffffffffffffffffffffffffffffffffff16310281151561023e57fe5b049081150290604051600060405180830381858888f19350505050151561026457600080fd5b6102c1565b3373ffffffffffffffffffffffffffffffffffffffff166108fc3073ffffffffffffffffffffffffffffffffffffffff16319081150290604051600060405180830381858888f1935050505015156102c057600080fd5b5b565b6000803073ffffffffffffffffffffffffffffffffffffffff1631149050905600a165627a7a72305820f7e6dbb64b7635dab3286abfddeb3d4bbdb9ca697bc8e136c630d5e1fd95e8af0029",
  "source": "pragma solidity ^0.4.21;\r\n\r\n/*\r\nThis retirement fund is what economists call a commitment device. I’m trying to make sure I\r\nhold on to 1 ether for retirement.\r\n\r\nI’ve committed 1 ether to the contract below, and I won’t withdraw it until 10 years have\r\npassed. If I do withdraw early, 10% of my ether goes to the beneficiary (you!).\r\n\r\nI really don’t want you to have 0.1 of my ether, so I’m resolved to leave those funds alone\r\nuntil 10 years from now. Good luck!\r\n*/\r\n\r\ncontract RetirementFundAttacker {\r\n    function RetirementFundAttacker(address target) public payable {\r\n        require(msg.value > 0);\r\n        selfdestruct(target);\r\n    }\r\n}\r\n\r\ncontract RetirementFundChallenge {\r\n    uint256 startBalance;\r\n    address owner = msg.sender;\r\n    address beneficiary;\r\n    uint256 expiration = now + 10 years;\r\n\r\n    function RetirementFundChallenge(address player) public payable {\r\n        require(msg.value == 1 ether);\r\n\r\n        beneficiary = player;\r\n        startBalance = msg.value;\r\n    }\r\n\r\n    function isComplete() public view returns (bool) {\r\n        return address(this).balance == 0;\r\n    }\r\n\r\n    function withdraw() public {\r\n        require(msg.sender == owner);\r\n\r\n        if (now < expiration) {\r\n            // early withdrawal incurs a 10% penalty\r\n            msg.sender.transfer(address(this).balance * 9 / 10);\r\n        } else {\r\n            msg.sender.transfer(address(this).balance);\r\n        }\r\n    }\r\n\r\n    function collectPenalty() public {\r\n        require(msg.sender == beneficiary);\r\n\r\n        uint256 withdrawn = startBalance - address(this).balance;\r\n\r\n        // an early withdrawal occurred\r\n        require(withdrawn > 0);\r\n\r\n        // penalty is what's left\r\n        msg.sender.transfer(address(this).balance);\r\n    }\r\n}",
  "sourcePath": "C:\\defi\\capturetheether\\contracts\\RetirementFundChallenge.sol",
  "compiler": {
    "name": "solc",
    "version": "0.4.21+commit.dfe3193c.Emscripten.clang"
  },
  "schemaVersion": "3.4.3",
  "updatedAt": "2021-11-13T00:40:33.345Z",
  "devdoc": {
    "methods": {}
  },
  "userdoc": {
    "methods": {}
  }
}