{
  "contractName": "TokenWhaleHelper",
  "abi": [
    {
      "constant": true,
      "inputs": [],
      "name": "getOtherContract",
      "outputs": [
        {
          "name": "",
          "type": "address"
        }
      ],
      "payable": false,
      "stateMutability": "view",
      "type": "function"
    },
    {
      "constant": false,
      "inputs": [
        {
          "name": "newAddr",
          "type": "address"
        }
      ],
      "name": "setOtherContract",
      "outputs": [],
      "payable": false,
      "stateMutability": "nonpayable",
      "type": "function"
    },
    {
      "constant": true,
      "inputs": [],
      "name": "otherContract",
      "outputs": [
        {
          "name": "",
          "type": "address"
        }
      ],
      "payable": false,
      "stateMutability": "view",
      "type": "function"
    },
    {
      "payable": true,
      "stateMutability": "payable",
      "type": "fallback"
    },
    {
      "anonymous": false,
      "inputs": [
        {
          "indexed": false,
          "name": "caller",
          "type": "address"
        },
        {
          "indexed": false,
          "name": "newAddress",
          "type": "address"
        }
      ],
      "name": "SetOtherContract",
      "type": "event"
    },
    {
      "constant": false,
      "inputs": [],
      "name": "withdraw",
      "outputs": [],
      "payable": false,
      "stateMutability": "nonpayable",
      "type": "function"
    }
  ],
  "bytecode": "0x606060405260008060006101000a81548173ffffffffffffffffffffffffffffffffffffffff021916908373ffffffffffffffffffffffffffffffffffffffff160217905550341561005057600080fd5b6103098061005f6000396000f300606060405260043610610062576000357c0100000000000000000000000000000000000000000000000000000000900463ffffffff1680630b4b51981461006457806335a28f3e146100b95780633ccfd60b146100f2578063e98d36e114610107575b005b341561006f57600080fd5b61007761015c565b604051808273ffffffffffffffffffffffffffffffffffffffff1673ffffffffffffffffffffffffffffffffffffffff16815260200191505060405180910390f35b34156100c457600080fd5b6100f0600480803573ffffffffffffffffffffffffffffffffffffffff16906020019091905050610185565b005b34156100fd57600080fd5b61010561025f565b005b341561011257600080fd5b61011a6102b8565b604051808273ffffffffffffffffffffffffffffffffffffffff1673ffffffffffffffffffffffffffffffffffffffff16815260200191505060405180910390f35b60008060009054906101000a900473ffffffffffffffffffffffffffffffffffffffff16905090565b806000806101000a81548173ffffffffffffffffffffffffffffffffffffffff021916908373ffffffffffffffffffffffffffffffffffffffff1602179055507f081eb3239ea805b9a08e7c4f93baacc9d1965ecde599e5ed9b2b3936cd3fe0b83382604051808373ffffffffffffffffffffffffffffffffffffffff1673ffffffffffffffffffffffffffffffffffffffff1681526020018273ffffffffffffffffffffffffffffffffffffffff1673ffffffffffffffffffffffffffffffffffffffff1681526020019250505060405180910390a150565b3373ffffffffffffffffffffffffffffffffffffffff166108fc3073ffffffffffffffffffffffffffffffffffffffff16319081150290604051600060405180830381858888f1935050505015156102b657600080fd5b565b6000809054906101000a900473ffffffffffffffffffffffffffffffffffffffff16815600a165627a7a7230582001f6267553a30327b56a5ce38c8243db8e54fa9b2e002d579e3bbb5bfd8358290029",
  "source": "pragma solidity ^0.4.21;\r\n\r\nimport './OtherContract.sol';\r\n\r\ncontract TokenWhaleHelper is OtherContract {\r\n    function() public payable { \r\n    }\r\n\r\n    function withdraw() public {\r\n        msg.sender.transfer(address(this).balance);\r\n    }\r\n}\r\n\r\ncontract TokenWhaleChallenge {\r\n    address player;\r\n\r\n    uint256 public totalSupply;\r\n    mapping(address => uint256) public balanceOf;\r\n    mapping(address => mapping(address => uint256)) public allowance;\r\n\r\n    string public name = \"Simple ERC20 Token\";\r\n    string public symbol = \"SET\";\r\n    uint8 public decimals = 18;\r\n\r\n    function TokenWhaleChallenge(address _player) public {\r\n        player = _player;\r\n        totalSupply = 1000;\r\n        balanceOf[player] = 1000;\r\n    }\r\n\r\n    function isComplete() public view returns (bool) {\r\n        return balanceOf[player] >= 1000000;\r\n    }\r\n\r\n    event Transfer(address indexed from, address indexed to, uint256 value);\r\n\r\n    function _transfer(address to, uint256 value) internal {\r\n        balanceOf[msg.sender] -= value;\r\n        balanceOf[to] += value;\r\n\r\n        emit Transfer(msg.sender, to, value);\r\n    }\r\n\r\n    function transfer(address to, uint256 value) public {\r\n        require(balanceOf[msg.sender] >= value);\r\n        require(balanceOf[to] + value >= balanceOf[to]);\r\n\r\n        _transfer(to, value);\r\n    }\r\n\r\n    event Approval(address indexed owner, address indexed spender, uint256 value);\r\n\r\n    function approve(address spender, uint256 value) public {\r\n        allowance[msg.sender][spender] = value;\r\n        emit Approval(msg.sender, spender, value);\r\n    }\r\n\r\n    function transferFrom(address from, address to, uint256 value) public {\r\n        require(balanceOf[from] >= value);\r\n        require(balanceOf[to] + value >= balanceOf[to]);\r\n        require(allowance[from][msg.sender] >= value);\r\n\r\n        allowance[from][msg.sender] -= value;\r\n        _transfer(to, value);\r\n    }\r\n}\r\n",
  "sourcePath": "C:\\defi\\capturetheether\\contracts\\TokenWhaleChallenge.sol",
  "compiler": {
    "name": "solc",
    "version": "0.4.21+commit.dfe3193c.Emscripten.clang"
  },
  "schemaVersion": "3.4.3",
  "updatedAt": "2021-11-07T14:18:09.197Z",
  "networkType": "ethereum",
  "devdoc": {
    "methods": {}
  },
  "userdoc": {
    "methods": {}
  }
}